:020000022000DC
:1060000000000420059D02002D9D0200F96C020095
:10601000319D0200339D0200359D0200000000000A
:10602000000000000000000000000000379D02009A
:10603000399D0200000000003B9D02003D9D0200D2
:10604000C17802003F9D0200C97D02006581020007
:10605000858002003F9D0200217C0200C17E02007B
:1060600035810200458102003F9D02003F9D0200F4
:106070003F9D02003F9D02003F9D02003F9D0200A8
:106080003F9D0200756702003F9D02003F9D020098
:10609000116802003F9D0200719202003F9D0200C4
:1060A0003F9D02003F9D02003F9D02003F9D020078
:1060B000797E02003F9D0200000000000000000009
:1060C0003F9D0200897E0200997E02003F9D0200F2
:1060D0003F9D02003F9D02003F9D02003F9D020048
:1060E0003F9D02003F9D02003F9D02000000000016
:1060F000000000003F9D0200000000003F9D0200E4
:10610000000000000000000000000000000000008F
:10611000000000000000000000000000000000007F
:10612000000000000000000000000000000000006F
:10613000000000000000000000000000000000005F
:10614000000000000000000000000000000000004F
:10615000000000000000000000000000000000003F
:10616000000000000000000000000000000000002F
:10617000000000000000000000000000000000001F
:10618000000000000000000000000000000000000F
:1061900000000000000000000000000000000000FF
:1061A00000000000000000000000000000000000EF
:1061B00000000000000000000000000000000000DF
:1061C00000000000000000000000000000000000CF
:1061D00000000000000000000000000000000000BF
:1061E00000000000000000000000000000000000AF
:1061F000000000000000000000000000000000009F
:1062000010B5054C237833B9044B13B10448AFF3F0
:1062100000800123237010BDA89E00200000000014
:106220009C29030008B5034B1BB103490348AFF396
:10623000008008BD00000000AC9E00209C290300E7
:10624000A3F5803A704700BF174B002B08BF134BD4
:106250009D46FFF7F5FF00218B460F461348144A71
:10626000121A03F03BFE0E4B002B00D098470D4B4B
:10627000002B00D098470020002104000D000D489D
:10628000002802D00C4805F055FF03F069FD2000FE
:10629000290000F019F803F053FD00BF00000800CA
:1062A000000000000000000000000420A89E002064
:1062B00028AC002035C10200F9D30200014803F0E8
:1062C0005DBE00BF980F030008B5064803F0E6FB6B
:1062D000054B186003F0B0FB03F0C2FB03F0D2FBE8
:1062E000FCE700BFB894002074AB002038B5054D22
:1062F000044645F001054FF47A40A847013CFAD125
:1063000038BD00BF8010030070B5054686B00E464C
:10631000144672B601F042F900F0A2FF0028FBD14A
:10632000464803F02BFE44F201039D4276D00AD882
:10633000012D12D041F201039D426DD031464048FB
:1063400003F01CFE0CE044F202039D42F6D12288C9
:1063500061683C4803F012FE02E03B4803F00EFE89
:1063600001F06EFB08B901F033FB0023ADF81430E7
:106370008DF8163005A901230D208DF8153001F098
:1063800069FB05A90E2001F065FB05A90F2001F0AE
:1063900061FB05A9102001F05DFB0D2001F012FC4E
:1063A0000E2001F00FFC0F2001F00CFC102001F07A
:1063B00009FC4FF4FA70FFF799FF0D2001F0D4FBB0
:1063C0000E2001F0D1FB0F2001F0CEFB102001F0D8
:1063D000CBFB3220FFF78AFF0D2001F0F3FB0E20EC
:1063E00001F0F0FB0F2001F0EDFB102001F0EAFBC3
:1063F0004FF4FA70FFF77AFF0D2001F0B5FB0E2085
:1064000001F0B2FB0F2001F0AFFB102001F0ACFB5C
:10641000FA20FFF76BFFC0E70C489FE7A1680391E4
:10642000084601F0F9F92368019600930246636873
:106430000399074803F0A2FD92E700BFBE0F0300D7
:106440005B10030016100300D70F0300F40F0300C6
:106450003110030007B501F0F3FA08B901F0B8FAFA
:106460000023ADF804308DF8063001A901230D207A
:106470008DF8053001F0EEFA01A90E2001F0EAFADC
:1064800001A90F2001F0E6FA01A9102001F0E2FABB
:106490000D2001F097FB0E2001F094FB0F2001F07E
:1064A00091FB102001F08EFB4FF4FA70FFF71EFFF6
:1064B0000D2001F059FB0E2001F056FB0F2001F0DA
:1064C00053FB102001F050FB3220FFF70FFF0D208F
:1064D00001F078FB0E2001F075FB0F2001F072FB3C
:1064E000102001F06FFB4FF4FA70FFF7FFFE0D2054
:1064F00001F03AFB0E2001F037FB0F2001F034FBD6
:10650000102001F031FBFA20FFF7F0FEC0E703692D
:10651000C1688B429DBF8268D21802F1FF3203F13D
:10652000FF3394BF501A581A70472DE9F843D0E949
:1065300002940546A9EB04084068904520440F46A4
:10654000144404D903F030FCEC60BDE8F883424603
:10655000A4EB090403F028FC6868224607EB080155
:10656000F0E72DE9F843C5680646894617464FF01F
:1065700000083469B3687068A54228BFE418013C7C
:10658000621B5C1BBC4228BF3C46944228BF144699
:1065900049462844224603F007FCB3682544AB4231
:1065A00008BF00253F1BA044A144F560E1D140464F
:1065B000BDE8F88310B5114C114AA2610223C4E969
:1065C0000433104BE361A2644FF400730E4A0F4989
:1065D0002362E26400231022E01DA3626362E3628F
:1065E000A3656365E365226503F0B4FD08492046B1
:1065F00003F0B0FD2023A37110BD00BF78AB0020D5
:1066000086100300D49E0020C49E00208F1003003B
:1066100093100300F8B5184C182300FB033503FB57
:1066200000402544C46A012C0F4616460FD0022CA8
:106630001AD0F4B92846FFF76AFF864205D83246D9
:1066400039462846FFF771FF34462046F8BD2846F4
:10665000FFF75DFF8642344628BF0446224639468E
:106660002846FFF762FFF0E72846BDE8F840FFF74D
:1066700078BF0024E9E700BF78AB002073B50E4B6C
:106680001B7804460D4616460BB9FFF793FF00230F
:106690000DF107008DF8073000F0D6FA3246294692
:1066A0002046FFF7B7FF04469DF8070000F0FCFA0C
:1066B000204602B070BD00BF78AB002010B5114677
:1066C0001C461A460020FFF7D9FF204610BD00B532
:1066D00083B002900091019244F2010071466A4633
:1066E000FFF712FE03B000BD094A537891780133D9
:1066F000DBB2994208BF0023117899421FBF037093
:106700005078182303FB002014BF0430002070478A
:10671000D4A0002073B5054600240DF107000E46F5
:106720008DF8074000F090FA0DF10600FFF7DCFF4E
:1067300090B10670094B9DF8062045605A709DF88F
:10674000070000F0B1FA24B9054B4FF48012C3F8EA
:106750000021204602B070BD0424F0E7D4A0002040
:1067600000E100E0024B4FF43C6043F001031847A6
:10677000A0100300F8B51F491F4B0025C1F8405178
:10678000C1F84451C1F84851C1F84C51C1F8005109
:10679000C1F804511B684BB3D1F804451749096887
:1067A000641A24F07F442F461A68A24209D8A41A1A
:1067B00015441A7CDE691AB1D3E905201F7490478D
:1067C000AEB90F4A0F4B11781B788B4205D10133BC
:1067D000DBB2022B08BF0023137012780A4B43F878
:1067E00022500A4B4FF48012C3F80021F8BD334603
:1067F000DAE700BF00100140F4A10020F0A1002062
:10680000EDA10020ECA10020E4A1002000E100E0C7
:106810002DE9F04FA14AA24913780978A14D994278
:1068200085B03CD00133DBB2022B08BF00231370CC
:106830009D4912789D4B0F6853F822003B1823F0B6
:106840007F4300220B602B6816461446944613B90A
:1068500042B12B6006E0196881420ED902B12B606B
:10686000091A196001272B68DFF848A201934FF03D
:106870000008BEB9DFF844B262E0401A0C44D9689F
:10688000D3F81CE0C3F800C031B13A1922F07F42BE
:10689000C3E90121DE611E4673460122D7E70026C7
:1068A0003746E0E73446F6697F4A63681268DFF8E6
:1068B00010C2A068991A21F07F41614500F2A880BA
:1068C00001442160012222742A680023C4E90133B3
:1068D000E361002A40F0A5802C60CAE79BF8021013
:1068E0005A1CD2B291428BF8002004BF00228BF8D0
:1068F0000020182202FB03B32A6819799C68022938
:1069000077D0032900F08180012919D1207CB8B902
:10691000D96861601A69A2605A69E2609B69A361E3
:10692000634B1B78002B18BF01466160BCE78C42AB
:1069300000F091808946C9690029F8D100232374A9
:106940009BF800309BF801209A42C7D12B68B8F120
:10695000000F04D1019A9A4201D1002F43D0002B9D
:1069600041D0D3F800A0534D4F4BD5F804751C68A7
:10697000DFF850813E1B98F8003026F07F46033642
:106980009BB94FF48033C5F84433C5F804334A4B00
:106990004FF40032C3F880211A604FF00109C5F8A6
:1069A0000090FFF7DFFE88F80090B2452CBF5444FA
:1069B000A41924F07F44C5F84045D5F80435DB1B05
:1069C00023F07F43E41B033324F07F44A3420AD91E
:1069D000D5F80435C5F84035FFF7C4FE364B4FF403
:1069E0000032C3F80021324B00221A7005B0BDE816
:1069F000F08F114691469FE71174D2690123002A56
:106A0000FAD1002B9CD02A609AE700231946F6E7BA
:106A1000D31A23F07F43834234BFC31A0023236079
:106A200050E721681368994213D8591A1160E2613E
:106A300052E7091AD8691A4638B1034618688842DD
:106A4000F7D3401A1860184613462160E061DC61F4
:106A50000FE71346F2E74C4511D1D3692B6073B9A8
:106A6000DFF844E00120CDE90212CAF80800CEF8B0
:106A700000300F4B1870FFF775FEDDE902120B684E
:106A8000C969C9F81C1011B1086803440B602B6870
:106A9000934218BF4FF0010850E700BFECA100205F
:106AA000EDA10020F4A10020F0A10020E4A100202D
:106AB000E0A100200010014000E100E0D4A000208F
:106AC000FEFF7F00E1A10020F8B51B4E4FF400331C
:106AD000C6F88030BFF34F8FBFF36F8F174D184F3D
:106AE0004FF480330124C5F84833C5F808336C608F
:106AF000FFF738FEAC6000243C60FFF733FE114B1B
:106B00001C70114B0B221C809A70104B1C60104B98
:106B10001C70104B4FF480121C70E023C6F88021CB
:106B200086F814333260C5F8084586F81133D5F875
:106B300004353B602046F8BD00E100E00010014054
:106B4000F0A10020E1A10020D4A00020F4A10020A9
:106B5000ECA10020EDA10020074B9B784BB132B196
:106B600028B10368187C20B959745A61704707200E
:106B700070470820704700BFD4A000202DE9F743DC
:106B8000DFF8848098F8023005460E461746ABB30E
:106B9000A0B3042930D9436983B3437C0024012B7B
:106BA0000DF107000CBF8946A1468DF8074000F0A3
:106BB0004BF80DF10600FFF797FDD8B101230370E4
:106BC0000F4B4560D3F80435C0E90497C0E902369D
:106BD0009DF8063088F801309DF8070000F064F851
:106BE00024B9084B4FF48012C3F80021204603B0AB
:106BF000BDE8F0830424EFE70724F7E70824F5E76E
:106C00000010014000E100E0D4A00020064A927884
:106C10003AB130B1426922B1002202740221FFF779
:106C200079BD0820704700BFD4A00020EFF3058392
:106C3000C3F308032BB9EFF31480C04300F0010045
:106C4000704701207047000070B50446FFF7EEFF63
:106C5000012803D01049432002F0BCFDEFF3108659
:106C600072B60E4A9068012398B993600C4B0D4D93
:106C7000D3F8801029401160C3F88050D3F88410F5
:106C800051604FF0FF32C3F88420207006B962B61D
:106C900070BD2370FAE700BFA6100300F0AB002020
:106CA00000E100E0FC06FFBD10B50446FFF7BEFFA3
:106CB000012803D00949512002F08CFD084B9A6845
:106CC0005AB154B9EFF3108172B6064A18681060D1
:106CD000586850609C6001B962B610BDA6100300F0
:106CE000F0AB002000E100E0024B1B680021986837
:106CF00003F058B9E89400201EF0040F1CBFEFF316
:106D000009800AE0EFF308800549064A884201D865
:106D1000904202D88D464FF00000034B1847000008
:106D20000000042000E003202D6D02002DE9F34750
:106D3000054600F033FC00F093FA0028FBD12F4CFD
:106D40002F48304B241AE40824049F6A44F00104BD
:106D5000002D4ED0AA692C49204600F0F1FBEB68CB
:106D60000193AB68294900932046D5E9002300F040
:106D700006FCEB6900932649D5E90423204600F080
:106D8000F2FB204BDB6A980703D52249204600F02E
:106D9000D3FBDFF89490DFF894A000264FF00108B1
:106DA00008FA06F33B4206D059F826201AB151469C
:106DB000204600F0C5FB01361A2EF1D1390605D563
:106DC000104B15495A6B204600F0BAFB3A0405D522
:106DD0000C4B12499A6B204600F0B2FB104B1B681B
:106DE000DB0700D500BE2846FFF734FB02B0BDE844
:106DF000F0870C49204600F09FFBC2E7182A0300E9
:106E0000B029030000ED00E0FB10030010110300A7
:106E100045110300A0110300EF1103000F1203003E
:106E2000F0ED00E06D110300EC160300E411030027
:106E300010B5034653E8000F0A4643E8002494F0D7
:106E4000000FF7D110BD10B5034653E8002F42EAFA
:106E5000010043E8000494F0000FF6D110BD10B516
:106E6000034653E8000F00EA010243E8002494F0CF
:106E7000000FF6D110BD10B5034653E8002F02EB0A
:106E8000010043E8000494F0000FF6D110BD10B5E6
:106E9000034653E8002FA2EB010043E8000494F0FE
:106EA000000FF6D110BD0121FFF7CDBF0021FFF784
:106EB000D6BF000037B5044620B914494FF492708C
:106EC00002F088FC00250DF107008DF80750FFF750
:106ED000BBFE2268616813688B4210D9591E11608D
:106EE00013F8015C228AE36802FB05352268A36877
:106EF00011685B1A1179DBB2994238BF13719DF8A2
:106F00000700FFF7D1FE284603B030BD5417030039
:106F100037B50C46054620B9104940F2471002F03B
:106F200059FC24B90D494FF4A47002F053FC00231E
:106F30000DF107008DF80730FFF786FE2A68136809
:106F4000591C1160E968641A298AB4FBF1F41C70B9
:106F50009DF80700FFF7A8FE03B030BD54170300EB
:106F600038B5074C051E04F1080318BF1C462368FA
:106F70002BB11A6822605B6828469847F7E738BD4E
:106F800000A2002020B9054B01225A70FFF7E8BF8C
:106F9000012802D1014A9070F8E77047F8A100205B
:106FA00020B9034B01225A70FFF7DABF704700BFC8
:106FB000F8A1002038B50B4C237883B90A486360E8
:106FC000A3602361E36000F031FC054602F036F96E
:106FD00008B900F03FFC01232370284638BD852501
:106FE000FBE700BFF8A10020856F020013B5164C27
:106FF000237823B915494FF4857002F0EBFBE36861
:1070000023B9124940F20B1002F0E4FB00230DF10A
:1070100007008DF80730FFF717FEE368013BE360D8
:10702000E36853B902F00AF918B10849792002F06F
:10703000D1FB00F02DFC0023A3709DF80700FFF7A3
:1070400033FE02B010BD00BFF8A10020A41703005A
:10705000012813B50CD0032820D038B9164B0122D3
:10706000C3F88020BFF34F8FBFF36F8F02B010BD06
:10707000124C00230DF107008DF80730FFF7E4FDF7
:1070800023780BB9FFF796FFE3689DF807000133FB
:10709000E3600123A370FFF707FEE7E7074B1B78C8
:1070A00023B9074940F2452002F094FB00F0D2FBDF
:1070B000FFF79CFFDAE700BF00E100E0F8A1002045
:1070C000A4170300037813F0040216D003F003039F
:1070D000012B03D0022B09D0012070470A680088D9
:1070E0000232C0F3831002440A60F5E70B6842885D
:1070F000023303EB92130B60EEE71046704700007B
:107100002DE9F04F89B000230446861C0DF10F00D5
:107110000F4615468DF80F30FFF796FD4948016878
:107120003960D0E90132134401335B1A824600F220
:107130001C4700F5836900F21448B3421CD30020B9
:10714000002D7BD004F00F039B0143F0050363F394
:107150000F00DAF80020DAF8083013400333164441
:107160004AF823009DF80F00CAF80060FFF79CFD65
:10717000012009B0BDE8F08F01213846FFF77BFE02
:107180004846FFF790FE4046FFF78DFEDAF8040010
:10719000DAF808B0049000EA0B0003300AEB800034
:1071A00004A9FFF78FFF049B0246F8B90BEA03011D
:1071B0000AEB810103F1020CC8680590013303EA70
:1071C0000B0B0AEB8B0B00F003000128DBF80C1013
:1071D000CDF810C02AD002280BD01B4901924FF4E1
:1071E000BF7002F0F7FA019A93460CE00BEA030035
:1071F000D3E7BDF81630C3F3891303334FEA114BBD
:107200000CEB930304934046FFF750FE10B1049B30
:10721000CAF8043059463846FFF72DFEDAE9012353
:107220001344DAF8002001339B1A86E7BDF81430C6
:10723000C3F383134FEA114B6344E3E7A40544F01F
:10724000060086E7DCA2002006180300034BD3E902
:107250000030C31A58425841704700BFDCA20020DA
:107260002DE9F04387B0FFF7F1FF0646002840F014
:10727000F9807D4DC5F81804BFF34F8F6B68AC687B
:1072800002932340033305EB830002A9FFF71AFFA3
:10729000029B18B1D5F81824002A5FD004EA030233
:1072A000991C013305EB8202234005EB8303D2686E
:1072B000DB68049302F00303022B0392029160D176
:1072C000BDF80E306948C3F38917502FB84628BF60
:1072D0004FF0500868F38F1308F10801ADF80E3035
:1072E00000F0DCF90646002800F0A78000F005FA5F
:1072F0000023082203A9304600F012FA029924EA7A
:1073000001020132B8EB820F4FEA820332D95FFAF1
:1073100088F85BB32140DCB2A8EB040803315FFAC4
:1073200088F9A046524C05EB8101082342463046BD
:1073300000F0F6F934B108F108034A462146304618
:1073400000F0EEF9029B033703EB97070297D5F89D
:107350001834002B49D1D5F8104459E02A689A42D4
:107360008FD86A60304607B0BDE8F08340491C46BC
:107370009946DAE70C40E11C0823424605EB8101FF
:10738000DDE7012B59D1BDF80C303848C3F3831128
:10739000062928BF062161F3891302318900ADF85F
:1073A0000C3000F07BF90646002846D000F0A5F925
:1073B0000023082203A9304600F0B2F90027BDF8E7
:1073C0000C20C2F38312BB00974203F10803BED224
:1073D00002994A1C21400331029205EB81010422EB
:1073E000304600F09DF90137E9E7304600F089F9B1
:1073F000FFF72CFF80F00100C6B2B3E7E3685B79CA
:1074000023B1236831461B6820469847E3681C680F
:10741000002CF3D1304600F074F90DF107008DF81F
:107420000740FFF711FCD5F818340BB9029B6B60CD
:107430009DF80700FFF738FCDAE7D5F8104454B997
:107440000C4B0D480D49C01AC008000440F0020062
:1074500000F072F8CCE7236820469B689847E36801
:107460001C68ECE700267DE7DCA20020482A030028
:10747000E8A20020B0290300082A03005D180300D9
:107480002DE9F74F274D04460F46914601A90122E9
:107490001846D5F808A09846FFF732FE78B3019E4B
:1074A0000023B01C434503EB000132D100211E48EC
:1074B000FFF7BEFC4FEA144980F3100B1B4B1C4A2C
:1074C0009B1AB9EBD30F04D31A4940F2A31002F070
:1074D00081F9731C03EA0A03E40005EB830304F05B
:1074E000380449EA0B4006EA0A0644F00104D86071
:1074F000033644EA881343EA872345F8263095F893
:1075000020341BB1FFF7ACFE0028FBD103B0BDE86F
:10751000F08F0AEA010105EB810159F82320CA60C6
:107520000133BFE7DCA20020F8A60020482A0300B0
:10753000B02903000618030000231A46FFF7A0BF76
:1075400007B50123019201AAFFF79AFF03B05DF886
:1075500004FB07B5CDE9002302236A46FFF790FF3D
:1075600003B05DF804FB1FB5CDE90123069B03932F
:1075700001AA0323FFF784FF05B05DF804FB1FB5E4
:10758000CDE90023069B0293079B03936A460423DD
:10759000FFF776FF05B05DF804FB000038B5094A37
:1075A0000123D2F8104482F820341D4604B938BDB6
:1075B000E3685D71236820465B689847E3681C6850
:1075C000F4E700BFDCA200202DE9F74F99469DF8B3
:1075D0003030009388469346064618B92349B620B2
:1075E00002F0F8F8F18872794A43043A4A4505D81E
:1075F0001E490192C42002F0EDF8019ADBF80070F8
:10760000B6F806A007EB0901914209F1040488BF0E
:10761000A2EB0907B4FBFAF5CBF800700AFB15449E
:1076200045B9AAEB040BBB4528BFBB462FB903B035
:10763000BDE8F08F3668013DF2E7009B043408EBAB
:10764000050034445A466BB12146A7EB0B0702F004
:10765000ABFBBA455D443668D3464FF0000428BF03
:10766000BB46E3E701462046EFE700BF7218030080
:10767000F8B546790146721E0546002393422D68EF
:1076800003D30024A64202D8F8BD0133F6E70F6801
:107690002846FFF73DFC01343946F3E72DE9F8436E
:1076A000CD1C068A0746FFF705FC043E3544044618
:1076B000B5FBF6F5F0B14FF48073EDB28380C68070
:1076C000013D076081464FF00008A84512D23846B8
:1076D000FFF7F0FB064648B163790133637108F1A7
:1076E0000108C9F8000007608146EEE72046FFF771
:1076F000BFFF34462046BDE8F88301210430FFF780
:10770000BABB10B5012104460430FFF7C0FB10F0EE
:10771000FF0F04D12046BDE81040FFF7A9BF10BD00
:107720001FB5144603920022009203AAFFF74CFFF4
:10773000039BA34203D00349F62002F04BF804B0A8
:1077400010BD00BF72180300064B10B500241C705A
:10775000054B1C60BFF35F8F0449054800F00AF831
:10776000204610BD08A700200CA70020CC1803005D
:1077700000A7002038B50D46044618B90849502026
:1077800002F028F81DB90649512002F023F82560BF
:107790002B6863606A68934204BF0023636038BD4E
:1077A000D818030010B5044618B90B49632002F03D
:1077B00011F823681BB90849642002F00BF86368CC
:1077C00043B1226891680B4463605268934204BFDE
:1077D0000023636010BD00BFD818030010B50D4929
:1077E000A1F59472914201D800200FE08C1AE30FAA
:1077F00003EBE4035B1002EBC30452F83330834223
:1078000005D802D204F10802ECE7606810BD2146F9
:10781000E8E700BF381E030008B5FFF7DFFF024BA3
:10782000002808BF184608BDFB1C030010B504461D
:1078300018B90649A02001F0CDFF054A107918B902
:1078400001211460918010BD8520FCE7381E0300E3
:1078500010A7002008B50B4B1B791BB90A49B920AA
:1078600001F0B8FF094B1A68D20704D4E02283F86C
:10787000002301221A604FF080430122C3F818252B
:1078800008BD00BF10A70020381E030000E100E083
:1078900008B5084B1B791BB90749F32001F09AFF83
:1078A000064B01221A604FF08042D2F81834DB03F5
:1078B000FBD408BD10A70020381E03000C000040B8
:1078C00007B5154B1A687AB100221A601B6800933D
:1078D000009B4FF080430122C3F808230F4B5879D7
:1078E00010B95A711B6898470D4B1A6882B1002273
:1078F0001A601B680193019B4FF080430222C3F87A
:107900000823064B1B68012003B05DF804EB184701
:1079100003B05DF804FB00BF0001004010A7002089
:107920000401004000F1804000F5C040002382B017
:10793000036003680193019B02B07047054B4FF051
:10794000FF32072843F8202084BFC01880F8582051
:10795000704700BF18A7002010B503682F2B0446FE
:1079600004D907494FF4F37001F034FF23681F2B4B
:1079700083BF03F01F03034823604FF0A04010BDF6
:107980008B1E03000003005013B5019001A80C46A4
:10799000FFF7E2FF019B00EB8300D0F8003723F4F0
:1079A0004033C0F80037D0F8003743EA0443C0F84A
:1079B000003702B010BD00004FF0A043D3F81035DF
:1079C0000360024BD3F8103543607047000300504A
:1079D00010B5174C94F86A3043BB04F130033021E2
:1079E000FF22013911F0FF0103F8012BF9D1C8B2D0
:1079F000FFF7A4FF01310C29F9D1062200210D481F
:107A000002F06CFA0C4BE02283F8062340221A6045
:107A10004FF4BE70FFF786FF084B4FF00042C3F8EB
:107A20000423012384F86A30002010BD0820FCE7FD
:107A300018A700207CA7002000E100E000600040C3
:107A4000034B93F86A00003818BF0120704700BF4D
:107A500018A700202F2873B504460D4604D93F49C6
:107A60004FF4987001F0B6FE3D4E96F86A30012B47
:107A700004D03A4940F2311001F0ACFE25B9374943
:107A80004FF4997001F0A6FE331993F930200132BA
:107A900061D1AA78002A52D0314B002253F8041B3E
:107AA000013146D1331983F83020002346F82230C3
:107AB000920002F1804202F5C0422B78D2F8100504
:107AC000697820F499101B04090520F4F85001F49A
:107AD000801103F44033C2F810050B432102D2F8A1
:107AE000100501F47C510B430343C2F810356D7847
:107AF0000194012D01A826D1FFF72EFF019B9D4087
:107B0000C0F8085501A80194FFF726FF019B15490D
:107B100003F5E073032240F8232024FA02F2012344
:107B200004F0070003FA00F08B5C1843885400202F
:107B300003E00132082AB1D1042002B070BDFE2258
:107B400083F83020D3E7FFF707FF019A0123934022
:107B5000C0F80C35D6E70820EFE700BFCE1E0300C3
:107B600018A700207CA700202F2837B5044604D989
:107B700012494FF4BE7001F02DFE114D2A1992F9F1
:107B80003020013204D10D4940F27D1001F022FE77
:107B90002B1993F83030072B04D808494FF4BF70E5
:107BA00001F018FE01A80194FFF7D6FE019A012307
:107BB0009340C0F8083503B030BD00BFCE1E0300AF
:107BC00018A700202F2837B5044604D912494FF4CE
:107BD000C37001F0FFFD114D2A1992F930200132D6
:107BE00004D10D4940F2871001F0F4FD2B1993F8F0
:107BF0003030072B04D808494FF4C47001F0EAFD77
:107C000001A80194FFF7A8FE019A01239340C0F850
:107C10000C3503B030BD00BFCE1E030018A70020F6
:107C20002DE9F04F00248BB0CDE90244624D4FF4B2
:107C30008072012102F1804303F5C04390B21B68BA
:107C4000012B06D1D5F804330B4202D0FFF76AFEB0
:107C50000C430432B2F5907F4FEA4101EAD1574B11
:107C60001B68012B08D14FF4BE70FFF75BFE02A822
:107C700044F00044FFF7A0FE14F0FF0F1AD0504F5D
:107C800000250126344210D0AB0003F1804303F5F8
:107C9000C043D3F81005D3F8101557F8253023B199
:107CA000C1F30141C0F3052098470135082D4FEA83
:107CB0004606E7D1002C7BDA04AF002304937B60F7
:107CC0004FF0FF33CDE90633DFF8F4903D4B0093DE
:107CD00000263546009A12F9013B00925A1C51D0F9
:107CE000C3F3C2000121DAB203F03F0B03F0070334
:107CF00001FA03F40AAB191811F8103C234241D0E1
:107D00004FEA921A09EB0B0292F9302059F82280BF
:107D1000B8F1000F09D1BAF1030F33D117F800C041
:107D20004CEA040C07F800C002E0BAF1030FF5D0EA
:107D300008A80191CDF820B0FFF70EFE089B01992D
:107D400003F5E07C11F8201C50F82C002142C0F310
:107D5000014006D0022815D1BAF1030F0CD15146CB
:107D600005E003280ED1BAF1030F05D102215846D0
:107D7000FFF70AFE0135EDB2B8F1000F02D051460F
:107D80005846C0470136042EA4D18DB108A8FFF78C
:107D900013FE029B089A9A42099B02D103998B42D7
:107DA00006D002920393049A059B069207938DE7EF
:107DB0000BB0BDE8F08F00BF006000407C61004068
:107DC00018A7002078A7002010B5054C22681AB922
:107DD0000449512001F0FEFC2368BDE8104018471B
:107DE00084A70020271F03000023435082B043587C
:107DF0000193019B02B0704770B5D0F81031054671
:107E00000C4653B14FF48871FFF7EEFF63795A07C0
:107E100003D523680BB101209847D5F814315BB125
:107E20004FF48A712846FFF7DFFF63791B0703D5FC
:107E300023680BB102209847D5F81C315BB1284666
:107E40004FF48E71FFF7D0FF607910F0100002D16F
:107E5000236803B19847D5F8043163B14FF48271B8
:107E60002846FFF7C1FF0123237123681BB1BDE83A
:107E700070400320184770BD01490248FFF7BCBF9E
:107E80008CA7002000C0014001490248FFF7B4BFA1
:107E900094A700200010024001490248FFF7ACBF40
:107EA0009CA700200020024000F1804000F5E04047
:107EB000002382B0036003680193019B02B0704706
:107EC000F0B5504B504C1B6885B0002B3DD04FF4A3
:107ED000827094F82E20FFF7E7FF2AB394F82F3032
:107EE00013BB4A4B1B68002B33D04FF48070FFF755
:107EF000DBFF638B94F82D108B424FD922895B1ADC
:107F00009BB292B26383D31A626802EB4303404A86
:107F1000C2F82C36C2F830164FF48270FFF7C4FF57
:107F20003C4B01221A6014E0636802932389ADF888
:107F30000C30E36800218DF8041023BB2374236800
:107F400001A89847002384F82F3094F82E30002B96
:107F5000C7D1314B1B685BB14FF48870FFF7A4FFAA
:107F60000023237402238DF8043001A82368984766
:107F70002A4B1B68EBB14FF48A70FFF795FF002383
:107F8000237405B0F0BD208B608363602081E160C5
:107F9000002AD4D11E4B01221A60D0E7BCD1E3687D
:107FA000012284F82F2013B100226283AFE763839C
:107FB000B2E766694FF000470125002EE1D0B6FA1E
:107FC00086F227FA02F34632920026EA030602F10D
:107FD000804303F5E0431B68002BEED01046FFF70B
:107FE00063FFA2F58C72D30882F00402C2F3800210
:107FF0008DF808308DF8045023688DF8092001A809
:108000009847DAE704710040A4A7002000710040FF
:108010000070004004700040107100401471004076
:1080200010B503682F2B044604D907494FF4F370A9
:1080300001F0D0FB23681F2B83BF03F01F0303480D
:1080400023604FF0A04010BD8B1E030000030050C2
:1080500007B5019001A8FFF7E3FF019A01239340C0
:10806000C0F80C3503B05DF804FB07B5019001A81A
:10807000FFF7D6FF019A01239340C0F8083503B0FB
:108080005DF804FB13B54FF04023D3F818310BB360
:10809000114B124C00221A601B680193019B23684C
:1080A00023B90F494FF4277001F094FBE07FFF28BC
:1080B00003D0A37F5BB1FFF7CBFF0023637723726D
:1080C000D4E90031074802B0BDE810401847FFF777
:1080D000CCFFF2E702B010BD18410040D4A7002049
:1080E000841F0300DCA700202DE9F7430024064687
:1080F0000F4600F5A0754FF48038A146A30003F5A4
:10810000A07398B22B686BB1D6F8043308FA04F266
:108110001A4207D0C5F800902B680193019BD7E95C
:10812000003198470134042C05F10405E6D103B071
:10813000BDE8F08301490248FFF7D6BFF8A7002049
:108140000080004001490248FFF7CEBF04A800208C
:10815000009000400023435082B043580193019B9C
:1081600002B07047F0B54F4C236887B023B94E4931
:1081700040F2452001F02EFB4C48D0F82431054652
:108180009BB14FF49271FFF7E5FFD0F8043163B96A
:10819000A368C0F808330223A360A368C0F80433BF
:1081A00001230362436107B0F0BDD5F80431002B11
:1081B00049D03F4F3D484FF48271FFF7CBFF0FCFBF
:1081C00001AE0FC63B68336094F82E307BB1237B41
:1081D000012B0CBFD5F83C25D5F84C250292022B7B
:1081E000324B0CBFD3F83C35D3F84C3503932F48B2
:1081F0004FF4B071FFF7AEFF2C484FF4AE71FFF7AC
:10820000A9FF94F8303013B194F82E303BB1274BCE
:108210000022C3F80022A260264AC3F80823234A9A
:10822000D2F8C434C2F8C4349A0736D501238DF885
:10823000003094F830300BB984F82F30D4E9003195
:1082400068469847AFE719484FF4A471FFF782FFDB
:10825000237B83B9164F0FCF01AE0FC63B68336047
:1082600094F83030002BDAD1C5F80032A360114BFE
:10827000C5F80833D3E74FF40073C5F8003240F275
:108280000223A36003F1CE73C5F80833A368C5F8D1
:1082900004330123AB602B6285E713F0040318BF9E
:1082A0000223C4E710A80020DB1F030000300040B9
:1082B0001CA8002002029C016DDF704779DF704727
:1082C0007DDF704764DF70472DE9F04F85B00025F2
:1082D0000E9CBDF83CB0B4F800A001910746904652
:1082E0001E46A9463A884A450DDC45B12388013B24
:1082F000A3EB0A039BB2FF2B3AD806F80A30002002
:1083000005B0BDE8F08F7A6852F82900039000228A
:108310000DF10B0103A8FFF7D5FF0028F0D19DF860
:108320000B20424521D12288002D14BF00200220BD
:1083300002EB0801014459451ADC3DB9013292B201
:10834000019B2280B35422880132228022880DF1C1
:108350000B01324403A8FFF7B5FF0028D0D12188D4
:108360009DF80B200A442280012509F10109B9E793
:108370000C20C5E72DE9F341089FBDF82480154680
:10838000CDE90078022204461E46FFF79DFF50B952
:108390003346102229462046CDE9087802B0BDE8D0
:1083A000F041FFF791BF02B0BDE8F0812DE9F04F39
:1083B00000231788138090F82D3085B006460D46AF
:1083C000144653B3082F01D80C2027E102A8FFF769
:1083D00073FF002840F0228123880822EA54238872
:1083E00001339BB21B222380EA542088013080B2E3
:1083F000208006220DF10901284401F0D5FC2388D4
:108400009DF8082006339BB212F0FE0218BF01222D
:108410002380EA54238801332380B378FBB1238877
:108420000433BB42D0D802A8FFF748FF002840F031
:10843000F58023880322EA54238801339BB2192252
:108440002380EA542388BDF8082001339BB2E91841
:108450002380EA54120A4A70238802332380F27878
:108460009AB12388D91CB942AED80221E954238895
:1084700001339BB201212380E95423880B449BB232
:108480002380EA5423880B4423807268AAB123888E
:10849000D91CB94298D8022192F90020E9542388C6
:1084A00001339BB20A212380E954238801339BB214
:1084B0002380EA542388013323803389002B40F042
:1084C000A180338A5BB1CDE900472B460722032107
:1084D00006F11000FFF74EFF002840F09F80338B1D
:1084E0005BB1CDE900472B461522142106F1180097
:1084F000FFF740FF002840F09180326A002A40F0E8
:108500009080D6F82480B8F1000F30D0B8F804304D
:108510002188981C8A1C0244BA423FF655AFFE28B7
:108520003FF652AF03336B54238801339BB2FF22D3
:108530002380EA54238801339BB22380B8F80020BB
:10854000EA54E918120A4A702088023080B220806A
:10855000B8F804205AB1D8F8081000296BD0284484
:1085600001F022FC2388B8F804201344238096F8F5
:108570002C30002B40F09A80307800284ED0338881
:10858000012B58D0228802F1020CBC453FF61CAFEB
:10859000012805D17378023313449F42FFF414AFCE
:1085A000023FBF1ABFB202A905EB0C00ADF808707C
:1085B000FFF786FE90BB3178BDF80830022900F045
:1085C000BA8072789A4202D3BB4240F2B28001294B
:1085D00040F0B380974293B2C0F0AF80ADF808305E
:1085E0000821BDF80830FE2B3FF6EEAE228801339D
:1085F000AB542288013292B22280A95422881344BB
:1086000023800BE0CDE900472B460622022106F12C
:108610000800FFF7AFFE00283FF453AF05B0BDE8F8
:10862000F08FB4F800C00CF10603BB423FF6CCAEAD
:108630001188052901D80720F0E76FF4486E01EB97
:108640000E039BB24FF27D3E7345F4D95388052B40
:10865000F1D96FF44860181880B27045EBD94FF625
:10866000FF70814203D0834201D09942E3D80523B1
:1086700005F80C30238801339BB212212380E95482
:10868000238801339BB223801188E954E818090A32
:108690004170238802339BB223805288EA54E91840
:1086A000120A4A702388023323802AE7B36A002B18
:1086B000C1D04FF000094FF00C0A4FF0160B96F89E
:1086C0002C305FFA89F293427FF656AFB16A0AFB0B
:1086D00002F201EB0208B8F80430981CFE283FF6BD
:1086E00073AE208803332B54238801339BB223803D
:1086F00005F803B0238801339BB223808A5AEA54D9
:10870000E918120A4A702088023080B22080B8F836
:1087100004205AB1D8F8081000298CD0284401F060
:1087200043FB2388B8F804201344238009F101098E
:10873000C5E7092155E7BB42FBD9ADF808704FE703
:1087400070B5C0B14AB116880024B44203D30519EC
:108750006D789D4208D0A14201D800200BE0055D54
:1087600001352C44A4B2F0E7A142F6D9A31C138032
:10877000005D013880B270BD13B513460022ADF81C
:1087800006200DF106020446FFF7DAFF10B1BDF82E
:108790000630E01802B010BD72DF704773DF70471B
:1087A00038B5012204460D46B0F83812D0F834022C
:1087B000FFF7E2FF00B1057004F13C0204F50D7112
:1087C00004F15400BDE83840FFF7E6BF80F83010F0
:1087D0007047F8B504460F46002975D0002873D0BD
:1087E00091F87A301BB191F89830002B6ED1D7F800
:1087F000A030042B6AD0D7F89C30042B66D04FF001
:10880000000C84F802C007F178060FCE251D0FC5B5
:108810000FCE0FC596E8070085E8070084F830C042
:10882000D7F8A4306363D7F8A830A3634FF6FF7579
:1088300004F50D73C4F84432A4F848520722614687
:1088400004F24A2001F04AFB23780BB984F8545013
:1088500094F82430002B14BFEE231F2304F155019C
:10886000C4F83412A4F8383204F50E723846FFF713
:108870009DFD40BB94F82430002B14BFEE231F2332
:1088800004F24311C4F83C12A4F8403204F510720B
:1088900007F13C00FFF78AFDA8B9A369A4F84830A6
:1088A0004FF480730125A4F85030636920640146B9
:1088B00084F83C50636404F13C0204F15400FFF777
:1088C0006BFF00B92570F8BD0E20FCE70720FAE722
:1088D000F8B5077804460D46002F00F0048100F239
:1088E0004A26817007220021304601F0F7FAE3881A
:1088F00013B1A378012B04D0E3794BB1A378022BF9
:1089000006D1636BA3B1012284F851220820984755
:10891000334604F5147113F8012F12B99942FAD1B4
:1089200017466B1E032B52D8DFE803F0050B0F121E
:1089300084F85132ECE7A3791BB194F8243003B9E1
:108940005FB9E3790BB1002F43D1237A002B42D1D9
:10895000637A002B0CBF00250425636BA570002BE8
:108960003BD0033D012D38D86279002A35D094F8E8
:10897000522292BB84F85422012284F85322072009
:10898000984704F13C0518220021284601F0A6FA78
:10899000E36A94F82420581E0121022828BF0B46C0
:1089A00084F83C1084F8513032B1884296BFA36AF3
:1089B00084F8521084F85230A178002384F85030A3
:1089C00004291BD8DFE801F0770D22355900002576
:1089D000C3E70225C1E70325BFE7002384F853322C
:1089E000CFE7C4E91063C4F844320223012284F8BB
:1089F0003C30802384F83120A4F84830A378002B41
:108A00005CD1636B002B6AD1002067E00223002A4F
:108A100084F8313014BF0723032384F83C302369E2
:108A2000A4F848300023C4F84432E3682664636441
:108A3000E4E763696364A369A4F8483012B10623CC
:108A400084F83C306379B3B194F852329BB994F80E
:108A5000543283B1022384F8503004212046FFF7BA
:108A60009FFE0028CAD1052384F8313004F50D7328
:108A7000C4F84432C2E70323F6E7E3696364236A78
:108A8000A4F8483012B1062384F83C30637983B1EE
:108A900094F852326BB994F8543253B1022384F8EB
:108AA000503004212046FFF77BFE0028A6D1062384
:108AB000DAE70423D8E784F831309FE7D4F844128A
:108AC0002A4604F15400FFF767FE38B994F83010D5
:108AD00094F85400FFF762FE002892D0F8BD94F895
:108AE0003100984790E70820F8E710B50388112B6C
:108AF0000C460AD0262B1FD0102B05D1C37B012B8F
:108B000002D18388A1F8483210BD002381F8523287
:108B10008288B1F848329A42F6D10B79002BF3D112
:108B200001212046FFF7D4FE0028EDD0A36B002BD7
:108B3000EAD0BDE810401847037A013B012BE3D887
:108B4000897805230131B1FBF3F303EB8303C91AE1
:108B5000C9B2E6E7704775DF704776DF70477ADFA6
:108B600070477BDF70470000034B1A8882420CBFBE
:108B700018460020704700BF60A80020024B9B6988
:108B800003B11847704700BF44A8002073B585B2F1
:108B90002846FFF7E9FF044670B1164E027A337B90
:108BA0009A420BD200F10A012846FFF7D4FFE8B140
:108BB000112801D0FFF7E2FF02B070BD002303725D
:108BC000337C43B13B212846FFF7C7FF30F0080351
:108BD00001D0FFF7D3FF7369002BEDD000228DF891
:108BE0000420ADF8065001A89847E5E7237A013341
:108BF0002372E1E744A8002037B50B46497A0F4AB3
:108C000071B9D2E901141D7A0246002D18BF214620
:108C10005868FDF7B3FF08B1FFF7B0FF03B030BDF0
:108C2000002119725369002BF8D00122ADF806001B
:108C30008DF8042001A89847F0E700BF44A8002061
:108C40004B8802889A4213D842889A4210D380886F
:108C50008A8840F2F313984294BF031AC31A9342CE
:108C600006D800F2F310904234BF00200120704774
:108C70000020704770B50388122B014659D004D8E4
:108C8000102B1ED0112B44D070BD502BFCD12F4B7C
:108C9000C288DB899A42F7D1038A022BF4D18688F5
:108CA0003046FFF761FF05460028EDD001F11200C4
:108CB00000F08AF838BB6868FDF7A8FF0028E3D009
:108CC00009E0C37B012BDFD14FF6FF70FFF74CFFAC
:108CD000054620B90420BDE87040FFF74FBF8E88DD
:108CE0001B4A0680002303721368C0F80A305368D9
:108CF000C0F80E3010310A30FFF7A2FF134B687234
:108D0000DB89002BC0D129463046BDE87040FFF713
:108D100073BF8088FFF728FF04460028B4D040685E
:108D2000FDF774FF08B1FFF729FF4FF6FF732380AB
:108D3000AAE786883046FFF717FF05460028A3D02C
:108D400008310A30FFF77CFF6872DCE744A8002096
:108D500074A80020F8B5064648B305460FCD154F58
:108D60003C460FC495E8070084E807003068124CC1
:108D70003C60B0B1FFF7F3FEC0B9326813682360FE
:108D8000536863600D480E4A4FF6FF7303800D4B26
:108D900040F8043F0021FDF7DFFE002818BF032044
:108DA00004E02046FFF7DDFE0028EBD0F8BD0E20E2
:108DB000FCE700BF44A8002074A8002060A80020A1
:108DC0008D8B02007CA80020007800F00100704725
:108DD00090DF7047A5DF7047B5DF70477FB5002390
:108DE000ADF80810ADF80A106A4602A906460393CA
:108DF0000093ADF80430FFF7EBFF054600B3124BCC
:108E0000124CE41AE408FEF707FD240444F00104C0
:108E100003460F4932462046FEF79BFBBDF8002073
:108E2000BDF8023052EA030103D00A492046FEF79A
:108E300090FBBDF804201AB107492046FEF780FBDD
:108E4000284604B070BD00BFB0290300202A0300EB
:108E50003720030081200300C020030080B14FF0C1
:108E6000F7130360FB230371F723C38017230381E8
:108E700041F6FB320023016143818281184670472D
:108E80000E20704713B5034680880C46B8B91A887F
:108E9000242A00F0968014D8112A71D0232A00F0D9
:108EA0009E80102A3BD0A37A4BB1E1880020FFF7C7
:108EB00091FF002840F099804FF48073638102B0E5
:108EC00010BD3A2A65D0552AEDD1DB88C988A07239
:108ED000172B38BF17238B4228BF0B462381FFF780
:108EE0007BFF60B1FEF798FC484B49490246494870
:108EF0001B1ADB081B0443F00100FEF721FBE37A99
:108F0000002BD0D12369002BCDD040F677220092E0
:108F10002289ADF80420694620469847C3E70A79BC
:108F20000A73DB7B012B13D0022B14D0E188238939
:108F30008B4205D20020FFF74DFF70B90123E37289
:108F4000217B637B8B42AED20020FFF747FFAAE76D
:108F50000B88E380EAE74B88FBE7112802D1012365
:108F6000A372EDE7FEF758FC284B2B49024629482F
:108F70001B1ADB081B0443F00100FEF7E1FADFE7F0
:108F8000F723CB8017230B8141F6FB3348818B817C
:108F900089E75B89CA88934228BF1346172B0A6961
:108FA00038BF17230B814AB1C97A39B140F677210E
:108FB0000091ADF804306946204690470023638154
:108FC00071E71A7A0B694A73002B3FF46CAF4DF6C8
:108FD0007A218DF8050000918DF804209BE7197A1D
:108FE000237B994228BF1946AFE711283FF467AFAA
:108FF000FEF712FC054B0849024606481B1ADB081F
:109000001B0443F00100FEF79BFA58E7202A0300F7
:1090100047210300B029030016210300B0DF704789
:1090200066DF704710B5002104464088FFF7F8FF5F
:10903000034608B9237210BD112801D10123F9E7B5
:109040006368BDE81040184760B159B10378DE2B62
:109050000AD00B684360DE2303704FF6FF73438032
:10906000002070470E2070470820704728B1037811
:10907000DE2B04D14180002070470E20704708206D
:109080007047F0B5054685B00C46F1B1E8B10B78F4
:10909000DE2B1AD182884B889A4204D10B7A13B105
:1090A0000846FFF7BFFF2B88112B32D0512B0ED073
:1090B000012B0AD12B7A012B07D1A9886288914212
:1090C00003D123722046FFF7ADFF05B0F0BDAE8897
:1090D0006388B342F9D1AF79022FF6D1AD7B2B1F54
:1090E000022BF2D800211022684600F0F7FE052D71
:1090F00014BF4FF4C0730023694630468DF80070EA
:10910000ADF80430FFF78AFF0028DED06368984787
:10911000DBE76388AA889A4204BF4FF6FF73638037
:10912000D3E710DF7047000013B5044609496846CD
:10913000FEF720FB019808B902B010BDD0E900216C
:109140002046904718B16846FEF72CFBF2E7112045
:10915000F2E700BFE021030013B504460749684663
:10916000FEF708FB019B0BB902B010BD2046D3E906
:10917000002190476846FEF715FBF3E7F82103004E
:109180000C4991F816335A09EC231341DB0706D535
:10919000094B9A684AB94FF480030B607047074A3D
:1091A000A12142F20200FDF792BA1A6842F480024D
:1091B0001A60704700E100E0F0AB0020832103005B
:1091C000F7B5194F3C7864BB184E01252046357021
:1091D000FFF7AAFF112821D02046FFF7BDFF144B4F
:1091E0008DF80340186801900DF10300FDF72CFD88
:1091F000104901A8FFF795FF0446B0FA80F0400936
:1092000038709DF80300FDF74FFD3CB90A4B3470F0
:109210001C70FFF7B5FF2846FFF79EFF204603B0FE
:10922000F0BD0824FAE700BF9DA800209CA80020FC
:10923000D9210300096302009EA80020014B187881
:10924000704700BF9DA8002007B508496846FEF793
:1092500091FA019B13B903B05DF804FBD3E9002038
:1092600090476846FEF79EFAF3E700BFEC21030043
:10927000FFF7EABF60DF704769DF704761DF704763
:1092800030B5134DADF5017D4FF4FA740DF10201C7
:1092900003A8ADF80240FFF7F1FF70B9294601A815
:1092A000FEF768FA029B002BF0D003A8D3E9002157
:1092B000904701A8FEF776FAF4E7052804D0054A9E
:1092C00040F23911FDF703FA0DF5017D30BD00BF05
:1092D000D424030004220300024B1B780BB1FFF7D8
:1092E000CFBF70479FA8002030B5054685B00C461B
:1092F000002900F0B6805C4B0B600C22002101A815
:1093000000F0ECFD01238DF8063022688DF8045042
:10931000062301A92020ADF80830FFF7ADFF60B1AA
:10932000FEF77AFA514B5249024652481B1ADB08A3
:109330001B0443F00100FEF703F90C22002101A8F1
:1093400000F0CCFD01238DF805302268002301A92F
:109350004020ADF80630FFF78FFF60B1FEF75CFAF2
:10936000424B4549024643481B1ADB081B0443F0A5
:109370000100FEF7E5F80C22002101A800F0AEFD87
:10938000F72322688DF8045001A92320ADF8063098
:10939000FFF772FF60B1FEF73FFA344B37490246E0
:1093A00034481B1ADB081B0443F00100FEF7C8F821
:1093B0000C22002101A800F091FD0A2322688DF8FB
:1093C000043001A90120FFF757FF60B1FEF724FA2E
:1093D000264B2B49024627481B1ADB081B0443F087
:1093E0000100FEF7ADF80C22002101A800F076FD87
:1093F0004FF4B0632268019301A9A120FFF73CFF5D
:1094000060B1FEF709FA194B1E49024619481B1AAA
:10941000DB081B0443F00100FEF792F80C22002148
:1094200001A800F05BFD9DF8043022686FF3000393
:1094300001A9A0208DF80430FFF71EFF034668B194
:10944000FEF7EAF9094B104902460A481B1ADB08E5
:109450001B0443F00100FEF773F80023184605B023
:1094600030BD0E23FAE700BFB8940020382A03006D
:1094700056220300B02903009C220300E8220300C7
:109480002F2303007B230300CC23030073B5054681
:109490000668FFF7EFFE2B68B34204461DD91A4851
:1094A0001A4B1B491B1ADB081B0443F002000190F6
:1094B000FEF742F82B68174901983246FEF749F843
:1094C0004FF080532A68D3F80C31134901989B025E
:1094D00003F100539A1AFEF733F82CB90F4B01220F
:1094E0001A70204602B070BD2046FEF795F9074B72
:1094F0000B49024604481B1ADB081B0443F0010019
:10950000FEF71EF8EDE700BFB0290300382A03007C
:109510001F2403004E2403007F2403009FA8002083
:10952000A92403006CDF704774DF704776DF704753
:1095300078DF70477ADF70477CDF70477FDF7047E6
:1095400086DF70478ADF70478FDF7047B1DF704773
:1095500033DF704741DF70477047000037B503883D
:10956000212B044632D80F2B06D87D4B13B1204651
:10957000AFF3008003B030BD103B112BF5D801A232
:1095800052F823F001960200459602006B95020006
:109590007F960200BB9602006B9502006B9502005D
:1095A0006B9502006B9502006B9502006B950200B3
:1095B000D79602006B950200279702006B95020078
:1095C0006B9502006B950200459702003B2B00F063
:1095D0008F80503B9AB2062AC7D8062BC5D801A265
:1095E00052F823F0619602006F9602009F960200E7
:1095F0006B9502006B9502006B95020007970200C5
:10960000584D818858482980FFF730FD20B1574ACE
:109610004FF49D71FDF75BF8002328881A46194620
:10962000FFF794FF20B1514A4FF4A171FDF74FF8B5
:109630004F4800F0A3FC4F4B002B96D02046AFF3D1
:10964000008092E7474B4C484FF6FF721A8000F0BB
:1096500095FC4A4B002B88D02046AFF3008084E76E
:10966000474B002B81D02046AFF300807DE7454B70
:10967000002B3FF47AAF2046AFF3008075E73948FE
:10968000002300881A468521FFF758FF00283FF481
:109690006CAF364A40F28111FDF719F865E73148A1
:1096A000002300881A461946FFF750FF00283FF4B0
:1096B0005CAF2E4A40F28711EEE72A48002300886B
:1096C0001A461946FFF73CFF00283FF44EAF274AE1
:1096D00040F29111E0E7037A012B7FF446AFFFF7E8
:1096E00037FF00283FF441AF204A4FF4CC71D3E755
:1096F00080881321FFF71AFF00283FF436AF1B4A7A
:109700004FF4D071C8E7A379002B7FF42EAF154B2F
:1097100013211888FFF70AFF00283FF426AF134AE9
:1097200040F2A711B8E7184B0BB1FCF7C7FD17497A
:109730000020FFF707FF00283FF417AF0B4A40F265
:10974000C711A9E700238088ADF8043001A9FFF70D
:10975000FBFE00283FF409AF044A40F2D1119BE719
:1097600000000000FCAB002010AB0020E024030050
:109770000F250300000000001F250300000000006B
:109780000000000000000000BD620200CC94002038
:1097900008B5024AB021FCF79AFF08BDE024030097
:1097A00008B503784BB9054B3B211888FFF7BEFE7F
:1097B00018B1034ABA21FCF78AFF08BDFCAB0020B0
:1097C000E024030008B5024AAC21FCF780FF08BD85
:1097D000E024030013B504460548019100F0CEFBD8
:1097E000019A04482146FCF772FF02B010BD00BF89
:1097F00031250300EFBEADDE1FB5184C00230293E8
:10980000ADF80030CDF80B3023681B788DF80230AE
:10981000E5238DF8033006224CF2980369460DF1DA
:109820000900ADF8043000F0BFFA23685B884FF6FA
:10983000FF72934207D0062269460DF10900ADF888
:10984000003000F0B1FA02A8FFF76CFE20B1044A24
:1098500040F22B21FCF73BFF04B010BDA0A8002074
:10986000E024030007B5FFF7ABFC20B10F4A40F23C
:109870003321FCF72CFF002301A901200193FFF7FE
:1098800033FD20B1094A40F23921FCF720FF01A83D
:10989000FFF7FCFD20B1054A40F26E21FCF717FFEF
:1098A000FFF7AAFF03B05DF804FB00BFE02403004C
:1098B00010B51D4C86B011238DF80C302368596803
:1098C0000191084600F0BCFC019982B203A8FFF7A1
:1098D00033FE20B1154A4FF42071FCF7F8FE4FF427
:1098E0007070FFF725FE20B1104A4FF42171FCF78C
:1098F000EEFE0822002104A800F0F0FA23685A893D
:109900009B89ADF8123004A84FF0C873ADF8102051
:109910000593FFF70FFE20B1044A40F28F21FCF7B8
:10992000D6FE06B010BD00BFA0A80020E0240300B2
:1099300000B5ADB0AC22002101A800F0CFFA02239F
:109940008DF8043040F20163104AADF8063001236F
:10995000ADF8143006928DF880304FF4F072002389
:10996000CDE923230A480B4B2A9301A9FEF731FFC7
:1099700020B1094A40F2B221FCF7A9FE04480121B6
:10998000FEF724FF2DB05DF804FB00BFC894002053
:10999000A4A8002059950200E024030000B589B076
:1099A0001C22002101A800F099FA00234FF4203274
:1099B000CDE90132ADF812304FF470228DF8143039
:1099C000094B039206930322084B8DF8102001A83F
:1099D0000793FFF7BFF920B1054A4FF43271FCF746
:1099E00076FE09B05DF804FBA19702009197020092
:1099F000E024030007B5074B0748019301A9FFF7CF
:109A000023FB20B1054A40F2D321FCF760FE03B0EE
:109A10005DF804FBC597020010AB0020E0240300B2
:109A200008B5FDF751F820B1024A40F22531FCF7A4
:109A30004EFE08BDE024030008B5074B93F8540020
:109A4000FFF772FD30F0080304D0044A4FF44F7161
:109A5000FCF73DFE08BD00BFA4A80020E0240300E1
:109A600008B505490548FFF76DFD20B1044A40F2ED
:109A70004B31FCF72CFE08BDCC940020D494002080
:109A8000E024030008B5FFF765FD20B1024A40F26B
:109A90005131FCF71CFE08BDE024030008B51A4B49
:109AA0001860FDF751FE20B1184A40F25E31FCF714
:109AB0000EFEFFF7B5FFFFF7D5FE154800F05EFA82
:109AC000FFF7F6FE134800F059FA13480021FFF79C
:109AD000C5F920B10D4A40F29621FCF7F8FD0F4878
:109AE00000F04CFAFFF724FF0D4800F047FAFFF7AB
:109AF00081FF0C4800F042FAFFF750FF0A484FF68A
:109B0000FF73038008BD00BFA0A80020E02403006D
:109B10005625030067250300FCAA002072250300D8
:109B20007E25030091250300FCAB0020054B1B683C
:109B3000082B01BF044B1868B0FA80F0400918BF29
:109B400000207047300100103401001008B54FF0BC
:109B500080430022C3F80C21C3F81021C3F8382534
:109B60004FF0805203F54043D2F80414C3F8201597
:109B7000D2F80814C3F82415D2F80C14C3F8281529
:109B8000D2F81014C3F82C15D2F81414C3F83015F9
:109B9000D2F81814C3F83415D2F81C14C3F84015C1
:109BA000D2F82014C3F84415D2F82414C3F8481589
:109BB000D2F82814C3F84C15D2F82C14C3F8501559
:109BC000D2F83014C3F85415D2F83414C3F8601521
:109BD000D2F83814C3F86415D2F83C14C3F86815E9
:109BE000D2F84014C3F86C15D2F84424C3F8702599
:109BF000FFF79CFF10B1384B384A1A60FFF796FF09
:109C000018B1374BFB22C3F81825FFF78FFF48B177
:109C10003449354B0A681B6822F00F0203F00F032A
:109C200013430B60FFF782FF18B1304B4FF4007203
:109C30001A604FF08043D3F80024D20744BF6FF07E
:109C40000102C3F800242A4AD2F8883043F4700392
:109C5000C2F88830BFF34F8FBFF36F8F4FF01023E0
:109C6000D3F80022002A03DBD3F80432002B2FDACA
:109C7000204B0122C3F80425D3F80024002AFBD08E
:109C80004FF010221221C2F80012D3F80024002A4B
:109C9000FBD04FF010231222C3F80422154B1A46B2
:109CA000D3F800140029FBD00021C3F80415D2F822
:109CB0000034002BFBD0BFF34F8F0D490E4BCA6809
:109CC00002F4E0621343CB60BFF34F8F00BFFDE7A8
:109CD0000A4B0B4A1A6008BD8C56004048810300AD
:109CE00000F00040E40E0040580200104096024090
:109CF00000ED00E000E001400400FA05E4940020DB
:109D00000090D0030649074A074B9B1A03DD043B2A
:109D1000C858D050FBDCFFF719FFFCF795FA00009C
:109D20009C2A0300B8940020A89E0020FEE7FEE7CE
:109D3000FEE7FEE7FEE7FEE7FEE7FEE7FEE7FEE7FB
:109D400008B50021044602F08FF9044B1868C36B74
:109D500003B19847204606F001FB00BFA826030088
:109D600070B50D4E0D4D761BB61006D0002455F87B
:109D7000043B01349847A642F9D1094E094D761BA0
:109D800007F0FEF8B61006D0002455F8043B013465
:109D90009847A642F9D170BD989E0020989E002059
:109DA000A49E0020989E0020844641EA000313F000
:109DB00003036DD1403A41D351F8043B40F8043BD2
:109DC00051F8043B40F8043B51F8043B40F8043B95
:109DD00051F8043B40F8043B51F8043B40F8043B85
:109DE00051F8043B40F8043B51F8043B40F8043B75
:109DF00051F8043B40F8043B51F8043B40F8043B65
:109E000051F8043B40F8043B51F8043B40F8043B54
:109E100051F8043B40F8043B51F8043B40F8043B44
:109E200051F8043B40F8043B51F8043B40F8043B34
:109E300051F8043B40F8043B403ABDD2303211D3D4
:109E400051F8043B40F8043B51F8043B40F8043B14
:109E500051F8043B40F8043B51F8043B40F8043B04
:109E6000103AEDD20C3205D351F8043B40F8043BD4
:109E7000043AF9D2043208D0D2071CBF11F8013BD2
:109E800000F8013B01D30B8803806046704700BF98
:109E9000082A13D38B078DD010F003038AD0C3F1A7
:109EA0000403D21ADB071CBF11F8013B00F8013B89
:109EB00080D331F8023B20F8023B7BE7043AD9D348
:109EC000013A11F8013B00F8013BF9D20B7803701D
:109ED0004B7843708B78837060467047F0B4860788
:109EE00046D0541E002A3CD0CAB2034601E0013CD1
:109EF00037D303F8012B9D07F9D1032C2AD9CDB212
:109F000045EA05250F2C45EA054534D9A4F1100290
:109F100022F00F0C03F120071609674403F1100229
:109F200042E9045542E902551032BA42F8D1721C96
:109F300014F00C0F03EB021204F00F0613D0331FC2
:109F400023F003030433134442F8045B9342FBD130
:109F500006F003042CB1CAB21C4403F8012B9C4246
:109F6000FBD1F0BC704734461346002CF3D1F8E720
:109F700014460346C1E71A462646E0E70FB400B58B
:109F8000074983B004AB086853F8042B8168019338
:109F900000F0C6F903B05DF804EB04B0704700BFF1
:109FA000E894002000290CBF022200224FF48063B5
:109FB00000F000B82DE9F043654CD4F8009083B070
:109FC00004460F4690461E46B9F1000F03D0D9F85B
:109FD0003830002B79D0B8F1020F06D0B8F1010F5C
:109FE00000F2A480002EC0F2A180636ED90752D582
:109FF0002146484603F06EF9216B41B104F140035C
:10A00000994202D0484603F05DFA00232363B4F975
:10A010000C500023A36163602B0665D425F44A65C8
:10A0200025F00305B8F1020FA58164D001AB6A46A3
:10A030002146484603F07AFBA3891843A081002EED
:10A0400030D0002F2FD0D9F83830002B39D0009BDA
:10A050002760B342B4F90C301CBF43F40063A38102
:10A06000B8F1010F04BF43F00103A3819AB213F0CA
:10A070000803C4E904762CD0D10755D57642A661F1
:10A08000666E002116F00106A16027D0002630463A
:10A0900003B0BDE8F083A3899A05A9D4A06D03F0AD
:10A0A00041FBA5E7009E304603F0BAFB07460028B7
:10A0B0003FD0A38943F08003A381D9F83830002B27
:10A0C000C5D1484603F062F9C1E7484603F05EF99E
:10A0D00081E7A360666E16F00106D7D193051CD503
:10A0E000304603B0BDE8F0832169484603F0EAF941
:10A0F000B4F90C5092E70026626E002104F143038C
:10A1000045F00205A160D7074FF00101C4E9043111
:10A11000A5812360E4D4A805E2D4A06D03F004FB7C
:10A12000304603B0BDE8F083A660D3E74FF0FF36BA
:10A13000D6E7009DB54204D0284603F071FB0746E0
:10A1400020B9B4F90C504FF0FF36D5E72E46B0E7F2
:10A15000E894002080EA0102844612F0030F4FD1F8
:10A1600011F0030F32D14DF8044D11F0040F51F8E6
:10A17000043B0BD0A3F101329A4312F0803F04BF9D
:10A180004CF8043B51F8043B16D100BF51F8044B86
:10A19000A3F101329A4312F0803FA4F101320BD1B6
:10A1A0004CF8043BA24312F0803F04BF51F8043B3B
:10A1B0004CF8044BEAD023460CF8013B13F0FF0F98
:10A1C0004FEA3323F8D15DF8044B704711F0010FCB
:10A1D00006D011F8012B0CF8012B002A08BF70479C
:10A1E00011F0020FBFD031F8022B12F0FF0F16BF93
:10A1F0002CF8022B8CF8002012F47F4FB3D170475B
:10A2000011F8012B0CF8012B002AF9D1704700BF7F
:10A21000000000000000000000000000000000003E
:10A22000000000000000000000000000000000002E
:10A23000000000000000000000000000000000001E
:10A2400090F800F06DE9024520F007016FF0000C76
:10A2500010F0070491F820F040F049804FF000041E
:10A260006FF00700D1E9002391F840F000F10800F9
:10A2700082FA4CF2A4FA8CF283FA4CF3A2FA8CF331
:10A280004BBBD1E9022382FA4CF200F10800A4FA98
:10A290008CF283FA4CF3A2FA8CF3E3B9D1E90423EC
:10A2A00082FA4CF200F10800A4FA8CF283FA4CF323
:10A2B000A2FA8CF37BB9D1E9062301F1200182FADD
:10A2C0004CF200F10800A4FA8CF283FA4CF3A2FAE3
:10A2D0008CF3002BC6D0002A04BF04301A4612BAF1
:10A2E000B2FA82F2FDE8024500EBD2007047D1E9F4
:10A2F000002304F00305C4F100004FEAC50514F083
:10A30000040F91F840F00CFA05F562EA05021CBF53
:10A3100063EA050362464FF00004A9E7000000006D
:10A320002DE9F04F2DED068BCFB01C468B4617461E
:10A33000814603F0EFF90368089418461193FFF77C
:10A340007FFF1090B9F1000F04D0D9F83830002BFE
:10A3500000F00A82DBF86430BBF90C2013F0010F27
:10A3600093B202D1910540F1D5869E040AD4DBF860
:10A37000641042F4005321F40051ABF80C30CBF8D8
:10A3800064109BB21D0740F1CA80DBF81020002A40
:10A3900000F0C58003F01A020A2A00F0CE800023E4
:10A3A0009FED837BCDE92333CDE91333CDE915331D
:10A3B0000C931293049325AB229398463B788DED32
:10A3C0000E7B09EE10BA002B00F078813C4604E0C9
:10A3D00014F8013F002B00F0C980252BF8D1E51BB4
:10A3E00040F0C7802378002B00F06881002305939C
:10A3F0008DF86B300293661C4FF0FF336478039343
:10A400002B254FF0200A0136A4F120035A2B00F22D
:10A41000D380DFE813F07802D100D1007202D100BE
:10A42000D100D1006A00D100D10010022102D10078
:10A430001B025802D10052025B005B005B005B0014
:10A440005B005B005B005B005B00D100D100D100D2
:10A45000D100D100D100D1005D01D100B301900243
:10A460005D015D015D01D100D100D100D1008A0202
:10A47000D100D100E902D100D100D100C101D10049
:10A480002502D100D1002108D100D100D100D10096
:10A49000D100D100D100D1005D01D100B301E701AD
:10A4A0005D015D015D01FE02E701AD01D1008102A8
:10A4B000D1001B0317080703AD01D100C1018200C1
:10A4C0001308D100D100F207D1008200A4F13003BB
:10A4D000002216F8014B02EB820203EB4202A4F1C8
:10A4E0003003092BF5D905928EE7484603F012F99F
:10A4F000436815931846FFF7A3FE034648461C46DB
:10A50000169303F007F98268139234B1139B23B1B9
:10A51000139B1B78002B41F0D980347873E75946A0
:10A52000484601F02FFD002841F07483BBF80C3041
:10A5300003F01A020A2A7FF432AFBBF90E20002A78
:10A54000FFF62DAFDBF86420D20702D49E0541F15F
:10A55000918123463A465946484601F0D1FC049081
:10A5600004984FB0BDEC068BBDE8F08FE51B00F002
:10A57000A580DDE9233201332A44072BCDE92332BC
:10A58000C8F80070C8F8045006DC08F10808049AFE
:10A5900023782A44049226E719EE101A22AA484684
:10A5A00004F0E6F8002841F04D840DF19408EEE740
:10A5B00000000000000000000996002C7ED000235F
:10A5C0001A464FF0010A8DF8D4408DF86B3007928F
:10A5D00003920A920D920B92CDF818A035AF029B10
:10A5E000029913F0020318BF0AF1020A11F0840B5A
:10A5F00005D10599A1EB0A06002E00F3D483249D12
:10A6000072B1239A013201350DF16B000121072A45
:10A61000CDE92325C8E9000100F3058408F1080805
:10A620006BB1239B013302351BA90222072BCDE915
:10A630002335C8E9001200F3068408F10808BBF1CD
:10A64000800F00F09682039B069A9E1A002E00F35C
:10A65000D882029BDE0500F13082239B069AC8F85F
:10A66000007001331544072B2495C8F80420239368
:10A6700000F32D8308F10808029B5C0705D5059BB4
:10A68000A3EB0A04002C00F3EC83DDE9043252450D
:10A69000ACBF9B1853440493002D40F0EF8200237D
:10A6A0002393079B1BB10799484602F00BFF0DF15E
:10A6B0009408099F3B78002B7FF488AE249B19EE09
:10A6C00010BA002B40F0F8870023239300F08FBCD2
:10A6D000089B0996073323F00703B3EC027B8DED4B
:10A6E0000E7BDDE90E56089326F000430AEE903A01
:10A6F0000AEE105A5BEC1AABB84B504659464FF075
:10A70000FF3206F083FA002840F05285B34B4FF039
:10A71000FF325046594606F05BFA002840F0488563
:10A72000002200232846314606F048FA002841F06E
:10A730009A819DF86B20AA4FAA4B029800214FF0F6
:10A74000030A20F0800007910290472CC8BF1F46E3
:10A75000CDF818A003910A910D910B91002A3FF4B6
:10A760003EAF0AF1010A3AE7484602F00FFEF1E572
:10A77000029B347843F02003029344E6089B099639
:10A7800053F8042B8DF8D42000210A464FF0010A1B
:10A7900008938DF86B101AE7089D099655F8047B0D
:10A7A00000268DF86B60002F00F08486039A134614
:10A7B000013300F02E873146384603F0F9FA07904E
:10A7C000002801F0E281079B0396DA1B06923346CC
:10A7D00022EAE27A08959DF86B2007930A930D937D
:10A7E0000B93BBE7029B09969D0640F1AD80089B49
:10A7F000073323F007031946F1E802230891924634
:10A800009B46002A73F10003C0F2AF80039B013323
:10A8100000F0AD85029B23F080055AEA0B0340F05F
:10A82000B182039B002B40F0B48202950023039376
:10A8300006934EAFC3E0089B53F8042B0592002A01
:10A8400080F27184059A089352420592029B3478F3
:10A8500043F004030293D6E534788DF86B50D2E5CB
:10A86000029B099643F01005AF0640F12984089B2E
:10A87000073323F00703F3E802AB08930123002218
:10A880008DF86B20039A114601317DD025F08001AF
:10A8900002915AEA0B0140F07182002A40F086864C
:10A8A000002BC3D115F00103069300F06B84302315
:10A8B0008DF837310DF2371781E0029B347843F081
:10A8C000800302939FE5324612F8014B2A2C01F0D7
:10A8D000F182A4F13003092B164698BF002201F241
:10A8E000928116F8014B02EB820203EB4202A4F1C3
:10A8F0003003092BF5D9039286E5029B347843F0A7
:10A90000010302937FE59DF86B30002B7FF405AEC9
:10A9100034788DF86BA076E53478029B6C2C00F0CF
:10A92000C28543F0100302936DE5029B347843F037
:10A930000803029367E5029B099643F01003029314
:10A94000029B9D063FF553AF029BD80640F1F6846B
:10A95000089B53F8042B08934FEAE27B5B46002ADE
:10A9600073F100039246BFF651AF039A029DDAF1EC
:10A97000000A11464FF02D036BEB4B0B01318DF8A4
:10A980006B304FF0010381D1012B00F0FB81022BD2
:10A990004EAF73D112984FEA1A130AF00F0143EA2F
:10A9A0000B734FEA1B129A469346435C07F8013D2E
:10A9B0005AEA0B03EFD14EABDB1B02950693002343
:10A9C000039907930A930D930B93069B9DF86B20B5
:10A9D0008B42B8BF0B469A46C0E600BFFFFFEF7F31
:10A9E000AC260300B0260300029B099643F0100337
:10A9F0000293029B990640F17783089B073323F06B
:10AA00000703F3E802AB0893029B23F4806500235D
:10AA100035E73478029B682C00F03E8543F0400314
:10AA20000293F0E4089B099647F6300153F8042B93
:10AA3000ADF86C1002990893CD4B129341F00205CA
:10AA400092464FF0000B0223782418E7029B0996E8
:10AA50009E0600F1A183029BDD0600F1AD85029BFD
:10AA60005C0600F14986029B980540F1A585089B8C
:10AA7000049953F8042B089311701AE64FEADA028E
:10AA800042EA4B724FEADB010AF007038B4692461B
:10AA900030335AEA0B013A4607F8013DEED1E90797
:10AAA00089D5302B87D03023023A07F8013C4EABD2
:10AAB0009B1A02950693174681E7652C40F3138194
:10AAC000DDE90E010022002306F06EF8002800F0F8
:10AAD0000482239BA74AC8F80020013301350122D4
:10AAE000072BCDE92335C8F8042000F3418508F190
:10AAF00008081C9B0C9A934280F20783239B119AAF
:10AB0000C8F80020109AC8F8042001331544072B18
:10AB10002495239300F3B28408F108080C9B5C1E73
:10AB2000002C7FF7A9AD102C239BDFF84CB240F32B
:10AB300030855F46102619EE10BA05E008F10808C6
:10AB4000103C102C40F3248501331035072BCDE940
:10AB50002335C8E90076F1DD22AA5946484603F0BC
:10AB600007FE002840F03E82DDE923350DF1940810
:10AB7000E6E7059BA3EB0A06002E7FF764AD102ED7
:10AB8000239ADFF8F4B129DD58462946A34619EE89
:10AB9000105A1023044604E0103E102E08F1080855
:10ABA00018DD01321031072ACDE92321C8E900431D
:10ABB000F2DD22AA2946484603F0DAFD002840F0DB
:10ABC0001082103E102EDDE923210DF194084FF084
:10ABD0001003E6DC23460D465C469B4601323544B5
:10ABE000072ACDE92325C8F800B0C8F8046000F3AF
:10ABF0003784039B069A9E1A002E08F108087FF7F7
:10AC000028AD102E239ADFF870B129DD5846294669
:10AC1000A34619EE105A1023044604E0103E102EED
:10AC200008F1080818DD01321031072ACDE9232187
:10AC3000C8E90043F2DD22AA2946484603F098FD00
:10AC4000002840F0CE81103E102EDDE923210DF1C9
:10AC500094084FF01003E6DC23460D465C469B4605
:10AC600001323544072ACDE92325C8F800B0C8F8D9
:10AC7000046000F3178208F10808EAE419EE101ADC
:10AC800022AA484603F074FD00283FF408AD19EEEF
:10AC900010BAA7E1239B1199C8F800101099C8F8C1
:10ACA000041001330D44072B2495239300F3D28520
:10ACB00008F10808002AC0F2C7870C9A013315442E
:10ACC000072BCDE92335C8E900727FF7D3AC19EE25
:10ACD000101A22AA484603F04BFD0028D7D1249D24
:10ACE0000DF19408C8E40C9B239C012B40F3928146
:10ACF000013401350123072CCDE92345C8F8007044
:10AD0000C8F8043000F3F18308F10808109B119A89
:10AD100001341D44072CCDE92345C8E9002300F385
:10AD2000F28308F108080023DDE90E01002205F096
:10AD30003BFF0C9B002840F08B81013B0134013725
:10AD40001D44072CCDE92345C8F80070C8F804302D
:10AD500000F3708108F10808149A013415441EAB01
:10AD6000072CCDE92345C8E900327FF783ACAEE775
:10AD7000BC260300EC26030000270300012B029DE4
:10AD80007FF405AEBBF1000F08BFBAF10A0F80F0E7
:10AD9000F6820AF1300A01238DF837A10295069355
:10ADA0000DF237170BE6102EDDE9232129DD17936D
:10ADB000102543460846B846274619EE104A04E0D7
:10ADC000103E102E03F1080316DD0132C449103085
:10ADD000072ACDE92320C3E90015F1DD22AA214687
:10ADE000484603F0C5FC002840F0B483103E102E06
:10ADF000DDE9232025ABE8DC3C4647469846179B17
:10AE000001460132B648C8F800007518072ACDE996
:10AE10002325C8F8046000F38B839DF86B2008F1AC
:10AE20000808FFF7EDBB19EE101A22AA484617933F
:10AE300003F09EFC00287FF42AAF249D179B0DF1A0
:10AE40009408FFF7EDBB19EE101A22AA484603F04A
:10AE50008FFC00287FF41BAF249D0DF19408FFF7B1
:10AE6000EEBB102C239B20DD19EE107A102604E097
:10AE7000103C102C08F1080817DD0133984A1035F2
:10AE8000072BCDE92335C8E90026F1DD22AA394692
:10AE9000484603F06DFC002840F07883103C102CED
:10AEA000DDE923350DF19408E7DC01338C4AC8F85D
:10AEB00000202544072BCDE92335C8F804407FF74F
:10AEC000E4AB19EE101A22AA484603F051FC002800
:10AED0007FF4DDAE249DFFF7D8BB1C9A002A40F317
:10AEE0002681DDE90B329342A8BF1346002B1C4696
:10AEF0000DDD239BC8F8007001332544072B2495F2
:10AF0000C8F80440239300F3D98508F108080B9B87
:10AF1000002CA8BF1B1B002B1C4600F355830B9B6A
:10AF20003B449B46029B590500F104851C9B0C9AEF
:10AF3000934203DB029AD20740F1CF83239A1199FF
:10AF4000C8F800101099C8F8041001320D44072AFF
:10AF50002495239200F3E98508F108080C9ABC189F
:10AF6000A4EB0B04D31A9C42A8BF1C46002C0DDD99
:10AF7000239AC8F800B001322544072A2495C8F85E
:10AF80000440239200F32E8608F10808002CACBF81
:10AF90001C1B1C46002C7FF76FAB102C239BDFF88B
:10AFA00044B140F3F6825F46102619EE10BA05E070
:10AFB00008F10808103C102C40F3EA8201331035E8
:10AFC000072BCDE92335C8E90076F1DD22AA5946E1
:10AFD000484603F0CDFB28B9DDE923350DF194088F
:10AFE000E8E7AB46079911B1484602F06BFADBF887
:10AFF000643013F0010FBBF80C3002D1980540F11A
:10B000009082590600F1128604984FB0BDEC068B71
:10B01000BDE8F08F029BDE073FF56AAE01340135D3
:10B020000123072CCDE92345C8F80070C8F8043087
:10B030007FF790AE19EE101A22AA484603F098FB4B
:10B0400000287FF424AEDDE923450DF1940883E662
:10B050005E1E002E7FF780AE102EDFF888B040F322
:10B06000E382CDF80CA0102719EE10AA05E008F134
:10B070000808103E102E40F3D58201341035072CFD
:10B08000CDE92345C8E900B7F1DD22AA514648467B
:10B0900003F06EFB002840F0BA85DDE923450DF191
:10B0A0009408E6E719EE101A22AA484603F060FB5E
:10B0B00000287FF4ECAD249D0DF19408FFF7C9BA88
:10B0C000089AEE0652F8041B08924FF001035ED472
:10B0D000680659D51FFA81FA4FF0000BFFF7CFBB76
:10B0E000F026030000270300029BDA0600F13681F8
:10B0F000029B5B0640F1B082089B53F8042B089337
:10B100001FFA82FA4FF0000B7EE4029BD8077FF50E
:10B11000B3AAF3E4DBF8580002F004FBBBF90C20FF
:10B1200093B2FFF722B934780893FFF76CB9239BE9
:10B13000C649C8F80010013301350121072BCDE9BC
:10B140002335C8F8041000F39B8408F10808002A8E
:10B150007FF4A0AD029B0C9A03F0010313433FF46C
:10B160008BAA239B119AC8F80020109AC8F80420D3
:10B1700001331544072B2495239300F36B8308F1C7
:10B1800008089AE54EAF1AE4AA0500F1AF828A4694
:10B190004FF0000BFFF773BB089B53F8041B089399
:10B1A000049BDD171A462B46C1E90023FFF781BA3D
:10B1B000DDE90E0102460B4605F028FD0546002894
:10B1C00040F03086612C00F0A485412C00F0A28272
:10B1D000039B24F020065A1C069600F0C085472EDB
:10B1E00000F09C85DDE90E01029A002942F480728C
:10B1F0000A924FF00003C0F2E58541EC180B17935B
:10B200000793462E00F0A084452E40F07184B0EEE6
:10B21000480AF0EE680A039B20A95D1C1DABCDE92E
:10B2200000312A461CAB0221484601F019F80746B6
:10B2300005440A9BDDF808B0029351EC180B00227C
:10B24000002305F0B1FC002800F056832B46DB1BE1
:10B250000C93069B472B00F02183069B462B00F0A6
:10B26000A1841C9B0B930B9B069A013B412A1C93C8
:10B2700000F0A285E2B20021002BB8BF0B9B8DF835
:10B280007820BABFC3F101032D222B22092B8DF8A0
:10B29000792040F382850DF1870EDFF8B8C175463D
:10B2A0008CFB0321DA17C2EBA10202EB8201A3EBB4
:10B2B00041011E463031632E284605F8011C134615
:10B2C00005F1FF35ECDC3033DAB2831E9E452946AA
:10B2D00005F8012C40F2F9850DF17A0301E011F82F
:10B2E000012B03F8012B8E45F9D10DF189030DF1E6
:10B2F0007A021B1A13441EAA9B1A14930C9B149ACD
:10B30000012B1A44069240F3AF85069B109A134412
:10B31000069300232BF480660A930D930B93069BF0
:10B3200046F48072029223EAE37A179B002B40F0E6
:10B33000DC829DF86B200393FFF710BA029B59063D
:10B3400040F19981089B53F8042B08930FFA82FA75
:10B350004FEAEA7B52465B46FFF753BA089B53F825
:10B36000042B089392464FF0000BFFF74DBBBBF147
:10B37000000F08BFBAF10A0F029DFFF40AAD05F4F1
:10B38000806600230295CDF81880139DA0464EAF2D
:10B3900034461E4609E005F077FCBBF1000F08BFFC
:10B3A000BAF10A0F1FD382468B460A220023504669
:10B3B000594605F069FC94460CF1300C07F801CCB5
:10B3C000504659460A2200230136013F002CE2D0A4
:10B3D00095F800C06645DED1FF2EDCD09B4508BF46
:10B3E000924580F095824EABDB1B44461395DDF809
:10B3F00018800C960693FFF7E2BA154B0996129344
:10B40000029B9F0666D5089B073323F00703F3E8EA
:10B4100002AB0893029AD0070AD55AEA0B0307D069
:10B42000302342F002028DF86D4002928DF86C30AC
:10B43000029B23F480650223FFF721BA029D09963F
:10B44000FFF712BA0996FFF7D4BA00BFEC26030043
:10B45000BC26030067666666AB4B09961293CFE77E
:10B4600019EE101A22AA484603F082F900287FF448
:10B470000EAC249D0DF19408FFF7E5B819EE101AF3
:10B4800022AA484603F074F900287FF400AC249DFA
:10B490000DF19408FFF742BB43F4007374780293F4
:10B4A0000136FEF7B0BF43F02003747802930136F3
:10B4B000FEF7A9BF039B0A97062B28BF0623039715
:10B4C0000D970B9707973A469A46904F0895069323
:10B4D000FFF744B9029BDE063ED5089B53F8042BC8
:10B4E000089392464FF0000B94E719EE101A22AA27
:10B4F000484603F03DF900287FF4C9ABDDE9234558
:10B500000DF1940802E419EE101A22AA484603F03D
:10B510002FF900287FF4BBABDDE923450DF194083A
:10B5200001E4DBF8580002F0FFF8BBF80C3068E5E6
:10B5300019EE101A22AA4846179303F019F90028A9
:10B540007FF4A5AB9DF86B20249D179B0DF194080B
:10B55000FFF756B8A34645E5029B5D066ED5089BEE
:10B5600053F8042B08931FFA82FA4FF0000B51E7AF
:10B5700019EE101A22AA484603F0FAF800287FF4C0
:10B5800086AB249D0DF19408FFF7B3BABB4629E5BD
:10B59000BB4601332544072BC8F800B0CDE923355D
:10B5A000C8F804407FF766A8FFF791BB012B029D06
:10B5B0007FF4EDA9FFF7EDBB089B049953F8042B2A
:10B5C00011600893FFF775B8102C239BDFF840B18A
:10B5D00064DD2A4610265D4619EE10BA04E008F133
:10B5E0000808103C102C57DD01331032072BCDE931
:10B5F0002332C8E90056F2DD22AA5946484603F034
:10B60000B7F800287FF4EEACDDE923320DF19408A1
:10B61000E7E73846FEF714FE3346039602460690E7
:10B62000FFF7D6B8DDF80CA001343544072CCDE97E
:10B630002345C8E900B67FF78DABFBE4029B13F40A
:10B64000007F089B53F8042B089314BF5FFA82FA1B
:10B6500092464FF0000BDDE6029B13F4007F089B3F
:10B6600053F8042B089314BF5FFA82FA92464FF006
:10B67000000BFFF7C9B9029B13F4007F089B53F836
:10B68000042B3FF468A94FFA82FA4FEAEA7B089349
:10B6900052465B46FFF7B5B8AB4615460133254425
:10B6A000072BCDE92335C8F800B0C8F8044000F3F3
:10B6B000E78008F1080832E419EE101A484622AA79
:10B6C00003F056F800283EF4FFAF90E4029B347874
:10B6D00043F480630293FEF796BE0C9ABC18A4EB69
:10B6E0000B04D31A9C42A8BF1C464FE45FFA81FAB0
:10B6F0004FF0000BFFF7C3B8089B049953F8042BD5
:10B7000008931180FEF7D5BFD0260300E42603007E
:10B710000027030030238DF86C3058238DF86D30EE
:10B72000029B43F00205039B632B00F3CC820023B2
:10B73000079335AFDDE90E01029A029542F481725A
:10B7400024F0200600290A920696C0F2AC8100235C
:10B7500041EC180B1793612C00F00583412C7FF40A
:10B7600050ADB0EE480AF0EE680A1CA802F002FFE5
:10B7700000224FF07F5351EC100B04F0ADFF00227C
:10B78000002382468B4605F00FFA08B101231C9373
:10B79000B74B0B93039B19973E4609EE909A0B9F6C
:10B7A00018945D1ECDF8348003E005F0FDF9013DED
:10B7B00008BBB04B00225046594604F08DFF894625
:10B7C000804605F039FA044604F01CFF02460B4699
:10B7D0004046494604F0C8FD17F804C0B5F1FF3FE4
:10B7E000B046824606F801CB8B464FF000024FF080
:10B7F0000003A946D9D1A04BCDF830800022504695
:10B800005946DDF83480199F0D944D46189C19EE69
:10B81000909A05F0F1F9002840F05F82964B50466F
:10B820005946002205F0C0F918B10D9BD90700F167
:10B830005482002D2B4606DB01333344302206F8B8
:10B84000012BB342FBD1F31B0C930A9BDDF808B02C
:10B850000293FEE419EE101A22AA484602F088FF6D
:10B8600000287FF414AADDE923351C9A0DF1940811
:10B87000FFF720BADBF8580001F056FFFEF769BE6B
:10B8800019EE101A22AA484602F072FF00287FF42F
:10B89000FEA9249D0DF19408FFF741BB1C9B0B935F
:10B8A000DA1C02DB039A934204DD023C24F02003FD
:10B8B0000693D8E4DDE90B318B42C0F289811BF09D
:10B8C000010F00F0BC82109A134406931BF4806FA2
:10B8D00003D00B9B002B00F37782069B672423EA9F
:10B8E000E37A00230A930D931FE52D2200238DF8A0
:10B8F0006B200393FEF735BF209BAB42BFF4A7AC90
:10B9000030215A1C20921970209B9D42F9D89EE448
:10B91000169B1599FF1A1A46384602F0B9FE6B7845
:10B9200003B101350A22002350465946002605F08E
:10B93000ABF938E50C9BCDF818A05E46DDF834B0C5
:10B940000B97FB1803934246DDF858A0139F0A9B00
:10B9500019EE108A2846BBF1000F2ED0002B6BD1B8
:10B96000013F0BF1FF3B239B1599116001335044BC
:10B97000072B2490C2F804A0239361DC08320399BA
:10B980003B788C1B9C42A8BF1C46002C0ADD239BE5
:10B99000166001332044072B24905460239358DC15
:10B9A0003B780832002CACBF1C1B1C46002C14DC5E
:10B9B0001E440A9BBBF1000FD0D1002B3CD1139742
:10B9C000DDE90B73FB189E42B346DDF818A09046E4
:10B9D000054628BF9B46FFF7A9BA102C23991EDD08
:10B9E00010250B4604E0103C102C02F1080215DD76
:10B9F000013322491030072BCDE92330C2E900156D
:10BA0000F1DD22AA4146484602F0B2FE002846D1A6
:10BA1000103C102CDDE9233025AAE9DC1946174B30
:10BA200013604B1C2044072BCDE92330546053DCBA
:10BA30003B7808321E44BCE70A9B013B0A9392E71D
:10BA400022AA4146484602F093FE40BB249825AA0C
:10BA500095E722AA4146484602F08AFEF8B93B78AB
:10BA6000249825AA9EE72D228DF86B20FEF763BE51
:10BA7000D0260300000030400000E03F0027030014
:10BA800019EE101A22AA484602F072FE00287FF42E
:10BA9000FEA81C9A249D0DF19408FFF758BBC346DD
:10BAA000FFF7A0BA0790DDE90E2303F1004308EE8B
:10BAB000903A2D2308EE102A17934CE619EE101A2F
:10BAC00022AA484602F054FE00287FF4E0A8249DF4
:10BAD0000DF19408FFF71BBA22AA4146484602F02E
