:020000022000DC
:1060000000000420C1A30200E9A302009570020071
:10601000EDA30200EFA30200F1A3020000000000C4
:10602000000000000000000000000000F3A30200D8
:10603000F5A3020000000000F7A30200F9A302008C
:106040005D7C0200FBA3020065810200B5870200AF
:10605000D5860200FBA30200BD7F02005D82020024
:106060008587020095870200FBA30200FBA30200C4
:10607000FBA30200FBA30200FBA30200FBA30200A0
:10608000FBA30200116B0200FBA30200FBA30200B2
:10609000AD6B0200FBA30200C1980200FBA302004B
:1060A000FBA30200FBA30200FBA30200FBA3020070
:1060B00015820200FBA302000000000000000000A7
:1060C000FBA302002582020035820200FBA302002E
:1060D000FBA30200FBA30200FBA30200FBA3020040
:1060E000FBA30200FBA30200FBA3020000000000D0
:1060F00000000000FBA3020000000000FBA3020060
:10610000000000000000000000000000000000008F
:10611000000000000000000000000000000000007F
:10612000000000000000000000000000000000006F
:10613000000000000000000000000000000000005F
:10614000000000000000000000000000000000004F
:10615000000000000000000000000000000000003F
:10616000000000000000000000000000000000002F
:10617000000000000000000000000000000000001F
:10618000000000000000000000000000000000000F
:1061900000000000000000000000000000000000FF
:1061A00000000000000000000000000000000000EF
:1061B00000000000000000000000000000000000DF
:1061C00000000000000000000000000000000000CF
:1061D00000000000000000000000000000000000BF
:1061E00000000000000000000000000000000000AF
:1061F000000000000000000000000000000000009F
:1062000010B5054C237833B9044B13B10448AFF3F0
:1062100000800123237010BDA89E00200000000014
:106220004C31030008B5034B1BB103490348AFF3DE
:10623000008008BD00000000AC9E00204C3103002F
:10624000A3F5803A704700BF174B002B08BF134BD4
:106250009D46FFF7F5FF00218B460F461348144A71
:10626000121A04F09DF90E4B002B00D098470D4BED
:10627000002B00D098470020002104000D000D489D
:10628000002802D00C4806F0B5FA04F0CBF8200044
:10629000290000F001F904F0B5F800BF0000080083
:1062A000000000000000000000000420A89E002064
:1062B000A0AC0020F5C70200B9DA02007047000068
:1062C00007B50DF1060102F05FF918B1044A382153
:1062D00000F0CBFBBDF9060003B05DF804FB00BF86
:1062E0005816030070B50B4A0B4C13680546002086
:1062F000834206DC102B1DBF591C1160184600207C
:1063000070BD2678AE4202D166788E42F8D0013058
:106310000734EDE7C894002080AB002010B5C2EB35
:10632000C2030D4A1A4401EB00211479537903EB9F
:1063300004239BB289B2CA1A002A08DC632908D850
:106340004FF6E850834294BF0020012010BD012089
:10635000FCE70020FAE700BF80AB00202DE9FF41F9
:10636000017CC02905467CD1C27B982A79D1837BE8
:10637000E52B76D1407B4F2873D1EE7AAF8C2C6A17
:1063800002962E7BCDE90006374804F059F9092F13
:1063900067D961792079FFF7A5FF94F80480064654
:1063A00028B10246617A207AFFF7B8FF30B92B7B1B
:1063B000984518D16279EB7A9A4214D12B4AC6EBF0
:1063C000C606931902F8068062795A70A2799A700B
:1063D000E279DA70227A1A71627A5A7100229A711D
:1063E000234B01221A700F2F3BD9E17AA07AFFF7D5
:1063F00079FF0546B8B10246E17BA07BFFF78EFF2F
:1064000088B11A4AA17AC5EBC50553195155E27AEC
:106410005A70227B9A70627BDA70A27B1A71E27BDF
:106420005A7100229A71617C207CFFF75BFF054660
:10643000B8B1617D207D2A46FFF770FF88B10B4A15
:10644000217CC5EBC50553195155627C5A70A27C5D
:106450009A70E27CDA70227D1A71627D5A71002294
:106460009A7104B0BDE8F0815F16030080AB002094
:10647000C49E0020064B1868064B0122904203F18F
:10648000070300DC70479979013199710132F5E712
:10649000C894002080AB00202DE9F0432DED028B45
:1064A0006A4B6B4918688DB00223009068468DF8DE
:1064B000003001F083FF18B1664AB02100F0D5FA30
:1064C00000200223CDE9010001A98DF8083008233E
:1064D0008DF80C00ADF806008DF80B3001F0D0FF00
:1064E00018B15C4ABB2100F0C0FA5B4C5B485C4FC2
:1064F0009FED5C8ABD2363700026AA23237066711A
:10650000267104F09DF8584803F0F6FD574B1860CB
:1065100003F0E0FD47F001070020FFF7D1FE07EE92
:10652000900AF8EEE77ADFED526A6088DFF854816E
:1065300067EE887A40BA87EEA67A80B2DFED4D7AB0
:1065400037EE677AF2EE046AC7EE267AFDEEE77A56
:1065500017EE905A05EB850505EB8505AD001FFA92
:1065600085F92DB2281A03F049FF0528424A07DCB5
:10657000D8F80030B3F5C87F02DA1378002B57D073
:10658000330A23712B12A37000231370CDE9093352
:10659000C8F80030CDF82B306FF0EA03049323786D
:1065A0008DF8143063788DF8153073BAADF8183063
:1065B000E3798DF81A30237A8DF81B30637A8DF8E1
:1065C0001C30A37A8DF81D30E37A8DF81E30237BC2
:1065D0008DF81F30A37B84F803908DF8203099FA52
:1065E00099F9E37B6671ADF816908DF82130237C24
:1065F0008DF82230637C8DF82330A37C8DF8243015
:106600001E48E37C8DF8253004F01AF829461C4812
:1066100004F016F803F04AFD162104A803F0B4FDB7
:1066200064254FF47A40B847013DFAD10136B6B23D
:106630000A254FF47A40B847013DFAD1D8F8003026
:106640000133C8F80030FFF715FF65E7D8160300DF
:10665000BD6202005816030080AB002072160300D2
:10666000E016030000803B45B89400207CAB00207E
:10667000008054450000FA43C49E00209516030094
:10668000BA160300C89E002038B5054D044645F0F3
:1066900001054FF47A40A847013CFAD138BD00BF4C
:1066A000A017030070B5054686B00E46144672B6B4
:1066B00001F042F900F0A2FF0028FBD1464803F0A8
:1066C000BFFF44F201039D4276D00AD8012D12D0BB
:1066D00041F201039D426DD03146404803F0B0FFC6
:1066E0000CE044F202039D42F6D1228861683C48E6
:1066F00003F0A6FF02E03B4803F0A2FF01F06EFBAF
:1067000008B901F033FB0023ADF814308DF81630D2
:1067100005A901230D208DF8153001F069FB05A9AD
:106720000E2001F065FB05A90F2001F061FB05A912
:10673000102001F05DFB0D2001F012FC0E2001F095
:106740000FFC0F2001F00CFC102001F009FC4FF4AD
:10675000FA70FFF799FF0D2001F0D4FB0E2001F035
:10676000D1FB0F2001F0CEFB102001F0CBFB32203B
:10677000FFF78AFF0D2001F0F3FB0E2001F0F0FB84
:106780000F2001F0EDFB102001F0EAFB4FF4FA704E
:10679000FFF77AFF0D2001F0B5FB0E2001F0B2FBF0
:1067A0000F2001F0AFFB102001F0ACFBFA20FFF747
:1067B0006BFFC0E70C489FE7A1680391084601F012
:1067C000F9F9236801960093024663680399074824
:1067D00003F036FF92E700BFE616030083170300BD
:1067E0003E170300FF1603001C1703005917030090
:1067F00007B501F0F3FA08B901F0B8FA0023ADF8D3
:1068000004308DF8063001A901230D208DF80530E4
:1068100001F0EEFA01A90E2001F0EAFA01A90F2019
:1068200001F0E6FA01A9102001F0E2FA0D2001F0D2
:1068300097FB0E2001F094FB0F2001F091FB10203C
:1068400001F08EFB4FF4FA70FFF71EFF0D2001F0F0
:1068500059FB0E2001F056FB0F2001F053FB1020D6
:1068600001F050FB3220FFF70FFF0D2001F078FB05
:106870000E2001F075FB0F2001F072FB102001F0DB
:106880006FFB4FF4FA70FFF7FFFE0D2001F03AFBAB
:106890000E2001F037FB0F2001F034FB102001F037
:1068A00031FBFA20FFF7F0FEC0E70369C1688B42B5
:1068B0009DBF8268D21802F1FF3203F1FF3394BF0B
:1068C000501A581A70472DE9F843D0E9029405464A
:1068D000A9EB04084068904520440F46144404D9AD
:1068E00003F0C4FDEC60BDE8F8834246A4EB090464
:1068F00003F0BCFD6868224607EB0801F0E72DE9CC
:10690000F843C5680646894617464FF000083469C3
:10691000B3687068A54228BFE418013C621B5C1B89
:10692000BC4228BF3C46944228BF144649462844EE
:10693000224603F09BFDB3682544AB4208BF002507
:106940003F1BA044A144F560E1D14046BDE8F88377
:1069500010B5114C114AA2610223C4E90433104B53
:10696000E361A2644FF400730E4A0F492362E264AC
:1069700000231022E01DA3626362E362A3656365E6
:10698000E365226503F048FF0849204603F044FF11
:106990002023A37110BD00BFF0AB0020A617030099
:1069A000DC9E0020CC9E0020AF170300B31703002D
:1069B000F8B5184C182300FB033503FB00402544B1
:1069C000C46A012C0F4616460FD0022C1AD0F4B917
:1069D0002846FFF76AFF864205D8324639462846E0
:1069E000FFF771FF34462046F8BD2846FFF75DFFEC
:1069F0008642344628BF0446224639462846FFF7D9
:106A000062FFF0E72846BDE8F840FFF778BF0024B2
:106A1000E9E700BFF0AB002073B50E4B1B780446CE
:106A20000D4616460BB9FFF793FF00230DF1070043
:106A30008DF8073000F0D6FA324629462046FFF797
:106A4000B7FF04469DF8070000F0FCFA204602B0AC
:106A500070BD00BFF0AB002010B511461C461A46B1
:106A60000020FFF7D9FF204610BD00B583B002908B
:106A70000091019244F2010071466A46FFF712FE4E
:106A800003B000BD094A537891780133DBB29942D3
:106A900008BF0023117899421FBF03705078182354
:106AA00003FB002014BF043000207047DCA000204E
:106AB00073B5054600240DF107000E468DF807401A
:106AC00000F090FA0DF10600FFF7DCFF90B10670C0
:106AD000094B9DF8062045605A709DF8070000F0AC
:106AE000B1FA24B9054B4FF48012C3F800212046B7
:106AF00002B070BD0424F0E7DCA0002000E100E05B
:106B0000024B4FF43C6043F001031847C0170300E9
:106B1000F8B51F491F4B0025C1F84051C1F8445139
:106B2000C1F84851C1F84C51C1F80051C1F80451A5
:106B30001B684BB3D1F8044517490968641A24F05F
:106B40007F442F461A68A24209D8A41A15441A7C19
:106B5000DE691AB1D3E905201F749047AEB90F4A18
:106B60000F4B11781B788B4205D10133DBB2022B1E
:106B700008BF0023137012780A4B43F822500A4BC7
:106B80004FF48012C3F80021F8BD3346DAE700BFA6
:106B900000100140FCA10020F8A10020F5A1002078
:106BA000F4A10020ECA1002000E100E02DE9F04F6D
:106BB000A14AA24913780978A14D994285B03CD0E9
:106BC0000133DBB2022B08BF002313709D491278FA
:106BD0009D4B0F6853F822003B1823F07F4300229F
:106BE0000B602B6816461446944613B942B12B60CD
:106BF00006E0196881420ED902B12B60091A1960AA
:106C000001272B68DFF848A201934FF00008BEB9B6
:106C1000DFF844B262E0401A0C44D968D3F81CE0B3
:106C2000C3F800C031B13A1922F07F42C3E9012113
:106C3000DE611E4673460122D7E700263746E0E7AD
:106C40003446F6697F4A63681268DFF810C2A068AC
:106C5000991A21F07F41614500F2A880014421602A
:106C6000012222742A680023C4E90133E361002A67
:106C700040F0A5802C60CAE79BF802105A1CD2B2E3
:106C800091428BF8002004BF00228BF800201822CC
:106C900002FB03B32A6819799C68022977D003297B
:106CA00000F08180012919D1207CB8B9D9686160D0
:106CB0001A69A2605A69E2609B69A361634B1B7801
:106CC000002B18BF01466160BCE78C4200F0918048
:106CD0008946C9690029F8D1002323749BF8003044
:106CE0009BF801209A42C7D12B68B8F1000F04D15C
:106CF000019A9A4201D1002F43D0002B41D0D3F802
:106D000000A0534D4F4BD5F804751C68DFF8508137
:106D10003E1B98F8003026F07F4603369BB94FF4AF
:106D20008033C5F84433C5F804334A4B4FF400327E
:106D3000C3F880211A604FF00109C5F80090FFF7F1
:106D4000DFFE88F80090B2452CBF5444A41924F00B
:106D50007F44C5F84045D5F80435DB1B23F07F435D
:106D6000E41B033324F07F44A3420AD9D5F8043549
:106D7000C5F84035FFF7C4FE364B4FF40032C3F878
:106D80000021324B00221A7005B0BDE8F08F114689
:106D900091469FE71174D2690123002AFAD1002B92
:106DA0009CD02A609AE700231946F6E7D31A23F00D
:106DB0007F43834234BFC31A0023236050E7216816
:106DC0001368994213D8591A1160E26152E7091AFF
:106DD000D8691A4638B1034618688842F7D3401A72
:106DE0001860184613462160E061DC610FE7134626
:106DF000F2E74C4511D1D3692B6073B9DFF844E059
:106E00000120CDE90212CAF80800CEF800300F4B7D
:106E10001870FFF775FEDDE902120B68C969C9F841
:106E20001C1011B1086803440B602B68934218BF13
:106E30004FF0010850E700BFF4A10020F5A10020A9
:106E4000FCA10020F8A10020ECA10020E8A1002076
:106E50000010014000E100E0DCA00020FEFF7F0008
:106E6000E9A10020F8B51B4E4FF40033C6F880307E
:106E7000BFF34F8FBFF36F8F174D184F4FF4803311
:106E80000124C5F84833C5F808336C60FFF738FEB5
:106E9000AC6000243C60FFF733FE114B1C70114BBB
:106EA0000B221C809A70104B1C60104B1C70104BF6
:106EB0004FF480121C70E023C6F8802186F814334A
:106EC0003260C5F8084586F81133D5F804353B60C3
:106ED0002046F8BD00E100E000100140F8A10020CC
:106EE000E9A10020DCA00020FCA10020F4A10020EA
:106EF000F5A10020074B9B784BB132B128B1036854
:106F0000187C20B959745A617047072070470820CF
:106F1000704700BFDCA000202DE9F743DFF8848034
:106F200098F8023005460E461746ABB3A0B30429C5
:106F300030D9436983B3437C0024012B0DF1070052
:106F40000CBF8946A1468DF8074000F04BF80DF1C3
:106F50000600FFF797FDD8B1012303700F4B456082
:106F6000D3F80435C0E90497C0E902369DF806302D
:106F700088F801309DF8070000F064F824B9084B48
:106F80004FF48012C3F80021204603B0BDE8F0831F
:106F90000424EFE70724F7E70824F5E70010014091
:106FA00000E100E0DCA00020064A92783AB130B15E
:106FB000426922B1002202740221FFF779BD082044
:106FC000704700BFDCA00020EFF30583C3F3080384
:106FD0002BB9EFF31480C04300F00100704701208B
:106FE0007047000070B50446FFF7EEFF012803D09C
:106FF0001049432002F016FFEFF3108672B60E4AD6
:107000009068012398B993600C4B0D4DD3F8801014
:1070100029401160C3F88050D3F8841051604FF0BC
:10702000FF32C3F88420207006B962B670BD2370A9
:10703000FAE700BFC617030068AC002000E100E0DB
:10704000FC06FFBD10B50446FFF7BEFF012803D0C4
:107050000949512002F0E6FE084B9A685AB154B92A
:10706000EFF3108172B6064A1868106058685060D5
:107070009C6001B962B610BDC617030068AC002061
:1070800000E100E0024B1B680021986803F0ECBAB5
:10709000EC9400201EF0040F1CBFEFF309800AE0FF
:1070A000EFF308800549064A884201D8904202D889
:1070B0008D464FF00000034B1847000000000420ED
:1070C00000E00320C97002002DE9F347054600F0F7
:1070D00033FC00F093FA0028FBD12F4C2F48304BA3
:1070E000241AE40824049F6A44F00104002D4ED0C1
:1070F000AA692C49204600F0F1FBEB680193AB68CC
:10710000294900932046D5E9002300F006FCEB69ED
:1071100000932649D5E90423204600F0F2FB204BDA
:10712000DB6A980703D52249204600F0D3FBDFF83D
:107130009490DFF894A000264FF0010808FA06F3B7
:107140003B4206D059F826201AB15146204600F09D
:10715000C5FB01361A2EF1D1390605D5104B15495C
:107160005A6B204600F0BAFB3A0405D50C4B124985
:107170009A6B204600F0B2FB104B1B68DB0700D572
:1071800000BE2846FFF734FB02B0BDE8F0870C498B
:10719000204600F09FFBC2E7C831030060310300C6
:1071A00000ED00E01B180300301803006518030011
:1071B000C01803000F1903002F190300F0ED00E0C1
:1071C0008D1803000C1E03000419030010B50346BC
:1071D00053E8000F0A4643E8002494F0000FF7D16B
:1071E00010BD10B5034653E8002F42EA010043E802
:1071F000000494F0000FF6D110BD10B5034653E81B
:10720000000F00EA010243E8002494F0000FF6D1D9
:1072100010BD10B5034653E8002F02EB010043E810
:10722000000494F0000FF6D110BD10B5034653E8EA
:10723000002FA2EB010043E8000494F0000FF6D108
:1072400010BD0121FFF7CDBF0021FFF7D6BF000021
:1072500037B5044620B914494FF4927002F0E2FDAC
:1072600000250DF107008DF80750FFF7BBFE2268DF
:10727000616813688B4210D9591E116013F8015CC4
:10728000228AE36802FB05352268A36811685B1A4D
:107290001179DBB2994238BF13719DF80700FFF7EF
:1072A000D1FE284603B030BD741E030037B50C462E
:1072B000054620B9104940F2471002F0B3FD24B949
:1072C0000D494FF4A47002F0ADFD00230DF107004D
:1072D0008DF80730FFF786FE2A681368591C116085
:1072E000E968641A298AB4FBF1F41C709DF8070060
:1072F000FFF7A8FE03B030BD741E030038B5074C7D
:10730000051E04F1080318BF1C4623682BB11A6838
:1073100022605B6828469847F7E738BD08A200203E
:1073200020B9054B01225A70FFF7E8BF012802D1AE
:10733000014A9070F8E7704700A2002020B9034B83
:1073400001225A70FFF7DABF704700BF00A2002089
:1073500038B50B4C237883B90A486360A360236176
:10736000E36000F031FC054602F090FA08B900F045
:107370003FFC01232370284638BD8525FBE700BF6D
:1073800000A200202173020013B5164C237823B904
:1073900015494FF4857002F045FDE36823B91249A1
:1073A00040F20B1002F03EFD00230DF107008DF8B6
:1073B0000730FFF717FEE368013BE360E36853B96A
:1073C00002F064FA18B10849792002F02BFD00F0B0
:1073D0002DFC0023A3709DF80700FFF733FE02B0D9
:1073E00010BD00BF00A20020C41E0300012813B579
:1073F0000CD0032820D038B9164B0122C3F88020C6
:10740000BFF34F8FBFF36F8F02B010BD124C00233C
:107410000DF107008DF80730FFF7E4FD23780BB975
:10742000FFF796FFE3689DF807000133E36001234F
:10743000A370FFF707FEE7E7074B1B7823B907495F
:1074400040F2452002F0EEFC00F0D2FBFFF79CFF7B
:10745000DAE700BF00E100E000A20020C41E030044
:10746000037813F0040216D003F00303012B03D0BA
:10747000022B09D0012070470A6800880232C0F34D
:10748000831002440A60F5E70B684288023303EB7D
:1074900092130B60EEE71046704700002DE9F04FA5
:1074A00089B000230446861C0DF10F000F461546D7
:1074B0008DF80F30FFF796FD494801683960D0E933
:1074C0000132134401335B1A824600F21C4700F577
:1074D000836900F21448B3421CD30020002D7BD0F6
:1074E00004F00F039B0143F0050363F30F00DAF888
:1074F0000020DAF808301340033316444AF823001A
:107500009DF80F00CAF80060FFF79CFD012009B04C
:10751000BDE8F08F01213846FFF77BFE4846FFF7B4
:1075200090FE4046FFF78DFEDAF80400DAF808B066
:10753000049000EA0B0003300AEB800004A9FFF777
:107540008FFF049B0246F8B90BEA03010AEB8101A5
:1075500003F1020CC8680590013303EA0B0B0AEB38
:107560008B0B00F003000128DBF80C10CDF810C0E5
:107570002AD002280BD01B4901924FF4BF7002F0B1
:1075800051FC019A93460CE00BEA0300D3E7BDF8E7
:107590001630C3F3891303334FEA114B0CEB9303FB
:1075A00004934046FFF750FE10B1049BCAF8043024
:1075B00059463846FFF72DFEDAE901231344DAF87D
:1075C000002001339B1A86E7BDF81430C3F3831300
:1075D0004FEA114B6344E3E7A40544F0060086E755
:1075E000E4A20020261F0300034BD3E90030C31A96
:1075F00058425841704700BFE4A200202DE9F043F3
:1076000087B0FFF7F1FF0646002840F0F9807D4D76
:10761000C5F81804BFF34F8F6B68AC680293234022
:10762000033305EB830002A9FFF71AFF029B18B191
:10763000D5F81824002A5FD004EA0302991C01330C
:1076400005EB8202234005EB8303D268DB680493D9
:1076500002F00303022B0392029160D1BDF80E30B9
:107660006948C3F38917502FB84628BF4FF0500818
:1076700068F38F1308F10801ADF80E3000F0DCF963
:107680000646002800F0A78000F005FA0023082233
:1076900003A9304600F012FA029924EA01020132ED
:1076A000B8EB820F4FEA820332D95FFA88F85BB3F6
:1076B0002140DCB2A8EB040803315FFA88F9A04648
:1076C000524C05EB810108234246304600F0F6F9A2
:1076D00034B108F108034A462146304600F0EEF97D
:1076E000029B033703EB97070297D5F81834002B5A
:1076F00049D1D5F8104459E02A689A428FD86A6077
:10770000304607B0BDE8F08340491C469946DAE7A9
:107710000C40E11C0823424605EB8101DDE7012B0B
:1077200059D1BDF80C303848C3F38311062928BF5E
:10773000062161F3891302318900ADF80C3000F0A5
:107740007BF90646002846D000F0A5F90023082260
:1077500003A9304600F0B2F90027BDF80C20C2F3AF
:107760008312BB00974203F10803BED202994A1C60
:1077700021400331029205EB81010422304600F0E2
:107780009DF90137E9E7304600F089F9FFF72CFF52
:1077900080F00100C6B2B3E7E3685B7923B12368E8
:1077A00031461B6820469847E3681C68002CF3D1DB
:1077B000304600F074F90DF107008DF80740FFF72F
:1077C00011FCD5F818340BB9029B6B609DF80700CB
:1077D000FFF738FCDAE7D5F8104454B90C4B0D48E4
:1077E0000D49C01AC008000440F0020000F072F811
:1077F000CCE7236820469B689847E3681C68ECE761
:1078000000267DE7E4A20020F8310300F0A200206A
:1078100060310300B83103007D1F03002DE9F74FED
:10782000274D04460F46914601A901221846D5F876
:1078300008A09846FFF732FE78B3019E0023B01CE3
:10784000434503EB000132D100211E48FFF7BEFC87
:107850004FEA144980F3100B1B4B1C4A9B1AB9EBDF
:10786000D30F04D31A4940F2A31002F0DBFA731CC1
:1078700003EA0A03E40005EB830304F0380449EA51
:107880000B4006EA0A0644F00104D860033644EAD5
:10789000881343EA872345F8263095F820341BB136
:1078A000FFF7ACFE0028FBD103B0BDE8F08F0AEA79
:1078B000010105EB810159F82320CA600133BFE7BC
:1078C000E4A2002000A70020F8310300603103008B
:1078D000261F030000231A46FFF7A0BF07B50123A8
:1078E000019201AAFFF79AFF03B05DF804FB07B508
:1078F000CDE9002302236A46FFF790FF03B05DF84D
:1079000004FB1FB5CDE90123069B039301AA0323C2
:10791000FFF784FF05B05DF804FB1FB5CDE9002338
:10792000069B0293079B03936A460423FFF776FFA7
:1079300005B05DF804FB000038B5094A0123D2F810
:10794000104482F820341D4604B938BDE3685D71E7
:10795000236820465B689847E3681C68F4E700BF2B
:10796000E4A200202DE9F74F99469DF830300093AE
:1079700088469346064618B92349B62002F052FAC3
:10798000F18872794A43043A4A4505D81E49019262
:10799000C42002F047FA019ADBF80070B6F806A09E
:1079A00007EB0901914209F1040488BFA2EB090722
:1079B000B4FBFAF5CBF800700AFB154445B9AAEB05
:1079C000040BBB4528BFBB462FB903B0BDE8F08F01
:1079D0003668013DF2E7009B043408EB05003444AF
:1079E0005A466BB12146A7EB0B0702F03FFDBA45A3
:1079F0005D443668D3464FF0000428BFBB46E3E73A
:107A000001462046EFE700BF921F0300F8B5467914
:107A10000146721E0546002393422D6803D30024BD
:107A2000A64202D8F8BD0133F6E70F682846FFF7F3
:107A30003DFC01343946F3E72DE9F843CD1C068AB5
:107A40000746FFF705FC043E35440446B5FBF6F552
:107A5000F0B14FF48073EDB28380C680013D0760C2
:107A600081464FF00008A84512D23846FFF7F0FBD8
:107A7000064648B163790133637108F10108C9F81A
:107A8000000007608146EEE72046FFF7BFFF34465F
:107A90002046BDE8F88301210430FFF7BABB10B5DA
:107AA000012104460430FFF7C0FB10F0FF0F04D1A2
:107AB0002046BDE81040FFF7A9BF10BD1FB5144612
:107AC00003920022009203AAFFF74CFF039BA342FC
:107AD00003D00349F62002F0A5F904B010BD00BFA1
:107AE000921F0300064B10B500241C70054B1C6050
:107AF000BFF35F8F0449054800F00AF8204610BD27
:107B000010A7002014A70020EC1F030008A70020E6
:107B100038B50D46044618B90849502002F082F9DC
:107B20001DB90649512002F07DF925602B6863607C
:107B30006A68934204BF0023636038BDF81F0300E6
:107B400010B5044618B90B49632002F06BF923689D
:107B50001BB90849642002F065F9636843B12268E3
:107B600091680B4463605268934204BF00236360D2
:107B700010BD00BFF81F030010B50D49A1F59472A8
:107B8000914201D800200FE08C1AE30F03EBE403CD
:107B90005B1002EBC30452F83330834205D802D2A3
:107BA00004F10802ECE7606810BD2146E8E700BF79
:107BB0005825030008B5FFF7DFFF024B002808BF78
:107BC000184608BD1B24030010B5044618B9064921
:107BD000A02002F027F9054A107918B90121146094
:107BE000918010BD8520FCE75825030018A70020D0
:107BF00008B50B4B1B791BB90A49B92002F012F9E1
:107C0000094B1A68D20704D4E02283F8002301222A
:107C10001A604FF080430122C3F8182508BD00BF49
:107C200018A700205825030000E100E008B5084B24
:107C30001B791BB90749F32002F0F4F8064B012227
:107C40001A604FF08042D2F81834DB03FBD408BD31
:107C500018A70020582503000C00004007B5154B5D
:107C60001A687AB100221A601B680093009B4FF0DB
:107C700080430122C3F808230F4B587910B95A7179
:107C80001B6898470D4B1A6882B100221A601B6866
:107C90000193019B4FF080430222C3F80823064B57
:107CA0001B68012003B05DF804EB184703B05DF8D2
:107CB00004FB00BF0001004018A7002004010040A1
:107CC00000F1804000F5C040002382B003600368EB
:107CD0000193019B02B07047054B4FF0FF3207281C
:107CE00043F8202084BFC01880F85820704700BF98
:107CF00020A7002010B503682F2B044604D907499C
:107D00004FF4F37002F08EF823681F2B83BF03F04B
:107D10001F03034823604FF0A04010BDAB250300B4
:107D20000003005013B5019001A80C46FFF7E2FFD5
:107D3000019B00EB8300D0F8003723F44033C0F8F8
:107D40000037D0F8003743EA0443C0F8003702B0E8
:107D500010BD00004FF0A043D3F810350360024B74
:107D6000D3F81035436070470003005010B5174C2E
:107D700094F86A3043BB04F130033021FF2201390B
:107D800011F0FF0103F8012BF9D1C8B2FFF7A4FFEE
:107D900001310C29F9D1062200210D4802F000FC26
:107DA0000C4BE02283F8062340221A604FF4BE7089
:107DB000FFF786FF084B4FF00042C3F8042301236E
:107DC00084F86A30002010BD0820FCE720A70020BE
:107DD00084A7002000E100E000600040034B93F81E
:107DE0006A00003818BF0120704700BF20A700209C
:107DF0002F2873B504460D4604D93F494FF49870B7
:107E000002F010F83D4E96F86A30012B04D03A4942
:107E100040F2311002F006F825B937494FF4997055
:107E200002F000F8331993F93020013261D1AA78B9
:107E3000002A52D0314B002253F8041B013146D1A5
:107E4000331983F83020002346F82230920002F1E3
:107E5000804202F5C0422B78D2F81005697820F4F0
:107E600099101B04090520F4F85001F4801103F463
:107E70004033C2F810050B432102D2F8100501F47B
:107E80007C510B430343C2F810356D780194012DEA
:107E900001A826D1FFF72EFF019B9D40C0F8085591
:107EA00001A80194FFF726FF019B154903F5E07334
:107EB000032240F8232024FA02F2012304F00700F1
:107EC00003FA00F08B5C18438854002003E0013271
:107ED000082AB1D1042002B070BDFE2283F8302000
:107EE000D3E7FFF707FF019A01239340C0F80C3551
:107EF000D6E70820EFE700BFEE25030020A700200B
:107F000084A700202F2837B5044604D912494FF41E
:107F1000BE7001F087FF114D2A1992F9302001320D
:107F200004D10D4940F27D1001F07CFF2B1993F82C
:107F30003030072B04D808494FF4BF7001F072FFAE
:107F400001A80194FFF7D6FE019A01239340C0F8DF
:107F5000083503B030BD00BFEE25030020A7002088
:107F60002F2837B5044604D912494FF4C37001F0E5
:107F700059FF114D2A1992F93020013204D10D49CF
:107F800040F2871001F04EFF2B1993F83030072B89
:107F900004D808494FF4C47001F044FF01A80194CB
:107FA000FFF7A8FE019A01239340C0F80C3503B0F7
:107FB00030BD00BFEE25030020A700202DE9F04FC3
:107FC00000248BB0CDE90244624D4FF48072012150
:107FD00002F1804303F5C04390B21B68012B06D128
:107FE000D5F804330B4202D0FFF76AFE0C4304328B
:107FF000B2F5907F4FEA4101EAD1574B1B68012B44
:1080000008D14FF4BE70FFF75BFE02A844F00044B5
:10801000FFF7A0FE14F0FF0F1AD0504F00250126E5
:10802000344210D0AB0003F1804303F5C043D3F8D2
:108030001005D3F8101557F8253023B1C1F30141CD
:10804000C0F3052098470135082D4FEA4606E7D1D1
:10805000002C7BDA04AF002304937B604FF0FF33E6
:10806000CDE90633DFF8F4903D4B0093002635460A
:10807000009A12F9013B00925A1C51D0C3F3C2007E
:108080000121DAB203F03F0B03F0070301FA03F416
:108090000AAB191811F8103C234241D04FEA921A4A
:1080A00009EB0B0292F9302059F82280B8F1000F49
:1080B00009D1BAF1030F33D117F800C04CEA040C10
:1080C00007F800C002E0BAF1030FF5D008A801914B
:1080D000CDF820B0FFF70EFE089B019903F5E07C78
:1080E00011F8201C50F82C002142C0F3014006D0AA
:1080F000022815D1BAF1030F0CD1514605E003282F
:108100000ED1BAF1030F05D102215846FFF70AFE3E
:108110000135EDB2B8F1000F02D051465846C047C4
:108120000136042EA4D18DB108A8FFF713FE029BDF
:10813000089A9A42099B02D103998B4206D0029277
:108140000393049A059B069207938DE70BB0BDE855
:10815000F08F00BF006000407C61004020A700203D
:1081600080A7002010B5054C22681AB90449512097
:1081700001F058FE2368BDE8104018478CA7002086
:10818000472603000023435082B043580193019BCC
:1081900002B0704770B5D0F8103105460C4653B1A7
:1081A0004FF48871FFF7EEFF63795A0703D5236810
:1081B0000BB101209847D5F814315BB14FF48A71A7
:1081C0002846FFF7DFFF63791B0703D523680BB150
:1081D00002209847D5F81C315BB128464FF48E71C8
:1081E000FFF7D0FF607910F0100002D1236803B1CF
:1081F0009847D5F8043163B14FF482712846FFF7F0
:10820000C1FF0123237123681BB1BDE87040032027
:10821000184770BD01490248FFF7BCBF94A7002072
:1082200000C0014001490248FFF7B4BF9CA70020ED
:108230000010024001490248FFF7ACBFA4A700208C
:108240000020024000F1804000F5E040002382B0B1
:10825000036003680193019B02B07047F0B5504B77
:10826000504C1B6885B0002B3DD04FF4827094F8C1
:108270002E20FFF7E7FF2AB394F82F3013BB4A4BA9
:108280001B68002B33D04FF48070FFF7DBFF638B4C
:1082900094F82D108B424FD922895B1A9BB292B26F
:1082A0006383D31A626802EB4303404AC2F82C3658
:1082B000C2F830164FF48270FFF7C4FF3C4B012226
:1082C0001A6014E0636802932389ADF80C30E36808
:1082D00000218DF8041023BB2374236801A898475C
:1082E000002384F82F3094F82E30002BC7D1314B67
:1082F0001B685BB14FF48870FFF7A4FF0023237461
:1083000002238DF8043001A8236898472A4B1B6884
:10831000EBB14FF48A70FFF795FF0023237405B08B
:10832000F0BD208B608363602081E160002AD4D19E
:108330001E4B01221A60D0E7BCD1E368012284F809
:108340002F2013B100226283AFE76383B2E766692F
:108350004FF000470125002EE1D0B6FA86F227FA49
:1083600002F34632920026EA030602F1804303F547
:10837000E0431B68002BEED01046FFF763FFA2F529
:108380008C72D30882F00402C2F380028DF80830A8
:108390008DF8045023688DF8092001A89847DAE782
:1083A00004710040ACA70020007100400070004044
:1083B00004700040107100401471004070B50E460A
:1083C000054618B92949D62001F02CFD1EB92749C8
:1083D000D72001F027FD264C94F82C30002B43D1F8
:1083E000244A29782660C2F8F0156978C2F8F41595
:1083F000E97884F82E102374012184F82D3063610C
:1084000084F82F306FF0004384F82C104FF4827002
:10841000C2F80833FFF716FF4FF48070FFF712FF22
:108420004FF48A70FFF70EFFAD78AB1E012B06D913
:108430006B1F022B03D910496B2001F0F3FC0F4B8B
:108440006D01EDB283F8075380221A60094B0222B6
:10845000C3F8042394F82E10012209B1C3F80423B1
:10846000C3F80025002070BD0820FCE79E2603000D
:10847000ACA7002000700040EB26030000E100E004
:1084800070B53E4E96F82C3004460D4623B93C4953
:1084900040F2231001F0C6FC072C04D938494FF4F0
:1084A000927001F0BFFC374BD3F8F43513F0FF0F97
:1084B00007D096F82D3023B131494FF4937001F075
:1084C000B1FCEB79013B082B04D92D494FF4947092
:1084D00001F0A8FC2B7A092B04D929494FF4957097
:1084E00001F0A0FC337C002B45D104F10C0206EB1B
:1084F00042031B7923B996F82D30013386F82D30CD
:1085000006EB4206EB7933712B7AAA7873716B789C
:1085100012021B0102F4E06203F0300313432A78D5
:1085200002F003021343EA78120302F48052134369
:108530002A79120402F4E02213436A79120502F444
:1085400080121343AA79120602F0807213432201AB
:1085500002F1804202F5E042240104F18044C2F8B5
:10856000183504F5E044EB792A7AC4F81425002084
:10857000C4F8103570BD1120FCE700BFACA7002087
:108580009E2603000070004070B5364C227C02F03D
:10859000FF03002A64D1344A012503262574C2F85A
:1085A0000863C2F82C16C2F8305694F82D20AA425F
:1085B0000CD919461A0102F1804202F5E04201335A
:1085C000082BC2F81415C2F81015F3D100F10C03F2
:1085D000000104EB430300F1804000F5E0401A790C
:1085E0005B79C0F81435C0F810251F4A01231360C9
:1085F000536042F2107302F58272116831B9013B87
:10860000FBD11A4940F29B1001F00CFC4FF4807032
:10861000FFF718FE4FF48270FFF714FE94F82D3028
:10862000012B11D90F490022130103F1804303F5F7
:10863000E0430132087F4D7FC3F81455082AC3F880
:10864000100501F10201EFD194F82E20064B2AB15A
:1086500003220020C3F80423207470BD0222F8E72F
:108660001120FAE7ACA70020007000409E2603000E
:1086700010B503682F2B044604D907494FF4F37053
:1086800001F0D0FB23681F2B83BF03F01F030348B7
:1086900023604FF0A04010BDAB2503000003005045
:1086A00007B5019001A8FFF7E3FF019A012393406A
:1086B000C0F80C3503B05DF804FB07B5019001A8C4
:1086C000FFF7D6FF019A01239340C0F8083503B0A5
:1086D0005DF804FB13B54FF04023D3F818310BB30A
:1086E000114B124C00221A601B680193019B2368F6
:1086F00023B90F494FF4277001F094FBE07FFF2866
:1087000003D0A37F5BB1FFF7CBFF00236377237216
:10871000D4E90031074802B0BDE810401847FFF720
:10872000CCFFF2E702B010BD18410040DCA70020EA
:1087300035270300E4A700202DE9F743002406466F
:108740000F4600F5A0754FF48038A146A30003F54D
:10875000A07398B22B686BB1D6F8043308FA04F210
:108760001A4207D0C5F800902B680193019BD7E906
:10877000003198470134042C05F10405E6D103B01B
:10878000BDE8F08301490248FFF7D6BF00A80020EA
:108790000080004001490248FFF7CEBF0CA800202E
:1087A000009000400023435082B043580193019B46
:1087B00002B07047F0B54F4C236887B023B94E49DB
:1087C00040F2452001F02EFB4C48D0F824310546FC
:1087D0009BB14FF49271FFF7E5FFD0F8043163B914
:1087E000A368C0F808330223A360A368C0F8043369
:1087F00001230362436107B0F0BDD5F80431002BBB
:1088000049D03F4F3D484FF48271FFF7CBFF0FCF68
:1088100001AE0FC63B68336094F82E307BB1237BEA
:10882000012B0CBFD5F83C25D5F84C250292022B24
:10883000324B0CBFD3F83C35D3F84C3503932F485B
:108840004FF4B071FFF7AEFF2C484FF4AE71FFF755
:10885000A9FF94F8303013B194F82E303BB1274B78
:108860000022C3F80022A260264AC3F80823234A44
:10887000D2F8C434C2F8C4349A0736D501238DF82F
:10888000003094F830300BB984F82F30D4E900313F
:1088900068469847AFE719484FF4A471FFF782FF85
:1088A000237B83B9164F0FCF01AE0FC63B683360F1
:1088B00094F83030002BDAD1C5F80032A360114BA8
:1088C000C5F80833D3E74FF40073C5F8003240F21F
:1088D0000223A36003F1CE73C5F80833A368C5F87B
:1088E00004330123AB602B6285E713F0040318BF48
:1088F0000223C4E718A800208C27030000300040A2
:1089000024A8002002029C016DDF704779DF7047C8
:108910007DDF704764DF70472DE9F04F85B000259B
:108920000E9CBDF83CB0B4F800A0019107469046FB
:108930001E46A9463A884A450DDC45B12388013BCD
:10894000A3EB0A039BB2FF2B3AD806F80A300020AB
:1089500005B0BDE8F08F7A6852F829000390002234
:108960000DF10B0103A8FFF7D5FF0028F0D19DF80A
:108970000B20424521D12288002D14BF0020022067
:1089800002EB0801014459451ADC3DB9013292B2AB
:10899000019B2280B35422880132228022880DF16B
:1089A0000B01324403A8FFF7B5FF0028D0D121887E
:1089B0009DF80B200A442280012509F10109B9E73D
:1089C0000C20C5E72DE9F341089FBDF8248015462A
:1089D000CDE90078022204461E46FFF79DFF50B9FC
:1089E0003346102229462046CDE9087802B0BDE87A
:1089F000F041FFF791BF02B0BDE8F0812DE9F04FE3
:108A000000231788138090F82D3085B006460D4658
:108A1000144653B3082F01D80C2027E102A8FFF712
:108A200073FF002840F0228123880822EA5423881B
:108A300001339BB21B222380EA542088013080B28C
:108A4000208006220DF10901284401F00FFD238842
:108A50009DF8082006339BB212F0FE0218BF0122D7
:108A60002380EA54238801332380B378FBB1238821
:108A70000433BB42D0D802A8FFF748FF002840F0DB
:108A8000F58023880322EA54238801339BB21922FC
:108A90002380EA542388BDF8082001339BB2E918EB
:108AA0002380EA54120A4A70238802332380F27822
:108AB0009AB12388D91CB942AED80221E95423883F
:108AC00001339BB201212380E95423880B449BB2DC
:108AD0002380EA5423880B4423807268AAB1238838
:108AE000D91CB94298D8022192F90020E954238870
:108AF00001339BB20A212380E954238801339BB2BE
:108B00002380EA542388013323803389002B40F0EB
:108B1000A180338A5BB1CDE900472B4607220321B0
:108B200006F11000FFF74EFF002840F09F80338BC6
:108B30005BB1CDE900472B461522142106F1180040
:108B4000FFF740FF002840F09180326A002A40F091
:108B50009080D6F82480B8F1000F30D0B8F80430F7
:108B60002188981C8A1C0244BA423FF655AFFE2861
:108B70003FF652AF03336B54238801339BB2FF227D
:108B80002380EA54238801339BB22380B8F8002065
:108B9000EA54E918120A4A702088023080B2208014
:108BA000B8F804205AB1D8F8081000296BD028442E
:108BB00001F05CFC2388B8F804201344238096F865
:108BC0002C30002B40F09A80307800284ED033882B
:108BD000012B58D0228802F1020CBC453FF61CAF95
:108BE000012805D17378023313449F42FFF414AF78
:108BF000023FBF1ABFB202A905EB0C00ADF8087026
:108C0000FFF786FE90BB3178BDF80830022900F0EE
:108C1000BA8072789A4202D3BB4240F2B2800129F4
:108C200040F0B380974293B2C0F0AF80ADF8083007
:108C30000821BDF80830FE2B3FF6EEAE2288013346
:108C4000AB542288013292B22280A9542288134464
:108C500023800BE0CDE900472B460622022106F1D6
:108C60000800FFF7AFFE00283FF453AF05B0BDE8A2
:108C7000F08FB4F800C00CF10603BB423FF6CCAE57
:108C80001188052901D80720F0E76FF4486E01EB41
:108C90000E039BB24FF27D3E7345F4D95388052BEA
:108CA000F1D96FF44860181880B27045EBD94FF6CF
:108CB000FF70814203D0834201D09942E3D805235B
:108CC00005F80C30238801339BB212212380E9542C
:108CD000238801339BB223801188E954E818090ADC
:108CE0004170238802339BB223805288EA54E918EA
:108CF000120A4A702388023323802AE7B36A002BC2
:108D0000C1D04FF000094FF00C0A4FF0160B96F847
:108D10002C305FFA89F293427FF656AFB16A0AFBB4
:108D200002F201EB0208B8F80430981CFE283FF666
:108D300073AE208803332B54238801339BB22380E6
:108D400005F803B0238801339BB223808A5AEA5482
:108D5000E918120A4A702088023080B22080B8F8E0
:108D600004205AB1D8F8081000298CD0284401F00A
:108D70007DFB2388B8F804201344238009F10109FE
:108D8000C5E7092155E7BB42FBD9ADF808704FE7AD
:108D900070B5C0B14AB116880024B44203D3051996
:108DA0006D789D4208D0A14201D800200BE0055DFE
:108DB00001352C44A4B2F0E7A142F6D9A31C1380DC
:108DC000005D013880B270BD13B513460022ADF8C6
:108DD00006200DF106020446FFF7DAFF10B1BDF8D8
:108DE0000630E01802B010BD72DF704773DF7047C5
:108DF00038B5012204460D46B0F83812D0F83402D6
:108E0000FFF7E2FF00B1057004F13C0204F50D71BB
:108E100004F15400BDE83840FFF7E6BF80F8301099
:108E20007047F8B504460F46002975D0002873D066
:108E300091F87A301BB191F89830002B6ED1D7F8A9
:108E4000A030042B6AD0D7F89C30042B66D04FF0AA
:108E5000000C84F802C007F178060FCE251D0FC55F
:108E60000FCE0FC596E8070085E8070084F830C0EC
:108E7000D7F8A4306363D7F8A830A3634FF6FF7523
:108E800004F50D73C4F84432A4F848520722614631
:108E900004F24A2001F084FB23780BB984F8545083
:108EA00094F82430002B14BFEE231F2304F1550146
:108EB000C4F83412A4F8383204F50E723846FFF7BD
:108EC0009DFD40BB94F82430002B14BFEE231F23DC
:108ED00004F24311C4F83C12A4F8403204F51072B5
:108EE00007F13C00FFF78AFDA8B9A369A4F8483050
:108EF0004FF480730125A4F8503063692064014663
:108F000084F83C50636404F13C0204F15400FFF720
:108F10006BFF00B92570F8BD0E20FCE70720FAE7CB
:108F2000F8B5077804460D46002F00F0048100F2E2
:108F30004A26817007220021304601F031FBE38888
:108F400013B1A378012B04D0E3794BB1A378022BA2
:108F500006D1636BA3B1012284F8512208209847FF
:108F6000334604F5147113F8012F12B99942FAD15E
:108F700017466B1E032B52D8DFE803F0050B0F12C8
:108F800084F85132ECE7A3791BB194F8243003B98B
:108F90005FB9E3790BB1002F43D1237A002B42D183
:108FA000637A002B0CBF00250425636BA570002B92
:108FB0003BD0033D012D38D86279002A35D094F892
:108FC000522292BB84F85422012284F853220720B3
:108FD000984704F13C0518220021284601F0E0FAE8
:108FE000E36A94F82420581E0121022828BF0B466A
:108FF00084F83C1084F8513032B1884296BFA36A9D
:1090000084F8521084F85230A178002384F850304C
:1090100004291BD8DFE801F0770D2235590000251F
:10902000C3E70225C1E70325BFE7002384F85332D5
:10903000CFE7C4E91063C4F844320223012284F864
:109040003C30802384F83120A4F84830A378002BEA
:109050005CD1636B002B6AD1002067E00223002AF9
:1090600084F8313014BF0723032384F83C3023698C
:10907000A4F848300023C4F84432E36826646364EB
:10908000E4E763696364A369A4F8483012B1062376
:1090900084F83C306379B3B194F852329BB994F8B8
:1090A000543283B1022384F8503004212046FFF764
:1090B0009FFE0028CAD1052384F8313004F50D73D2
:1090C000C4F84432C2E70323F6E7E3696364236A22
:1090D000A4F8483012B1062384F83C30637983B198
:1090E00094F852326BB994F8543253B1022384F895
:1090F000503004212046FFF77BFE0028A6D106232E
:10910000DAE70423D8E784F831309FE7D4F8441233
:109110002A4604F15400FFF767FE38B994F830107E
:1091200094F85400FFF762FE002892D0F8BD94F83E
:109130003100984790E70820F8E710B50388112B15
:109140000C460AD0262B1FD0102B05D1C37B012B38
:1091500002D18388A1F8483210BD002381F8523231
:109160008288B1F848329A42F6D10B79002BF3D1BC
:1091700001212046FFF7D4FE0028EDD0A36B002B81
:10918000EAD0BDE810401847037A013B012BE3D831
:10919000897805230131B1FBF3F303EB8303C91A8B
:1091A000C9B2E6E7704775DF704776DF70477ADF50
:1091B00070477BDF70470000034B1A8882420CBF68
:1091C00018460020704700BF68A80020024B9B692A
:1091D00003B11847704700BF4CA8002073B585B293
:1091E0002846FFF7E9FF044670B1164E027A337B3A
:1091F0009A420BD200F10A012846FFF7D4FFE8B1EA
:10920000112801D0FFF7E2FF02B070BD0023037206
:10921000337C43B13B212846FFF7C7FF30F00803FA
:1092200001D0FFF7D3FF7369002BEDD000228DF83A
:109230000420ADF8065001A89847E5E7237A0133EA
:109240002372E1E74CA8002037B50B46497A0F4A54
:1092500071B9D2E901141D7A0246002D18BF2146CA
:109260005868FDF759FE08B1FFF7B0FF03B030BDF5
:10927000002119725369002BF8D00122ADF80600C5
:109280008DF8042001A89847F0E700BF4CA8002003
:109290004B8802889A4213D842889A4210D3808819
:1092A0008A8840F2F313984294BF031AC31A934278
:1092B00006D800F2F310904234BF0020012070471E
:1092C0000020704770B50388122B014659D004D88E
:1092D000102B1ED0112B44D070BD502BFCD12F4B26
:1092E000C288DB899A42F7D1038A022BF4D186889F
:1092F0003046FFF761FF05460028EDD001F112006E
:1093000000F08AF838BB6868FDF74EFE0028E3D00D
:1093100009E0C37B012BDFD14FF6FF70FFF74CFF55
:10932000054620B90420BDE87040FFF74FBF8E8886
:109330001B4A0680002303721368C0F80A30536882
:10934000C0F80E3010310A30FFF7A2FF134B6872DD
:10935000DB89002BC0D129463046BDE87040FFF7BD
:1093600073BF8088FFF728FF04460028B4D0406808
:10937000FDF71AFE08B1FFF729FF4FF6FF732380B0
:10938000AAE786883046FFF717FF05460028A3D0D6
:1093900008310A30FFF77CFF6872DCE74CA8002038
:1093A0007CA80020F8B5064648B305460FCD154FFA
:1093B0003C460FC495E8070084E807003068124C6B
:1093C0003C60B0B1FFF7F3FEC0B9326813682360A8
:1093D000536863600D480E4A4FF6FF7303800D4BD0
:1093E00040F8043F0021FDF785FD002818BF032049
:1093F00004E02046FFF7DDFE0028EBD0F8BD0E208C
:10940000FCE700BF4CA800207CA8002068A8002032
:10941000DD91020084A80020007800F00100704770
:1094200090DF7047A5DF7047B5DF70477FB5002339
:10943000ADF80810ADF80A106A4602A90646039373
:109440000093ADF80430FFF7EBFF054600B3124B75
:10945000124CE41AE408FEF7ADFB240444F00104C6
:1094600003460F4932462046FEF741FABDF8002078
:10947000BDF8023052EA030103D00A492046FEF744
:1094800036FABDF804201AB107492046FEF726FA3D
:10949000284604B070BD00BF60310300D031030026
:1094A000E8270300322803007128030080B14FF041
:1094B000F7130360FB230371F723C3801723038192
:1094C00041F6FB32002301614381828118467047D7
:1094D0000E20704713B5034680880C46B8B91A8829
:1094E000242A00F0968014D8112A71D0232A00F083
:1094F0009E80102A3BD0A37A4BB1E1880020FFF771
:1095000091FF002840F099804FF48073638102B08E
:1095100010BD3A2A65D0552AEDD1DB88C988A072E2
:10952000172B38BF17238B4228BF0B462381FFF729
:109530007BFF60B1FEF73EFB484B49490246494874
:109540001B1ADB081B0443F00100FEF7C7F9E37A9E
:10955000002BD0D12369002BCDD040F6772200928A
:109560002289ADF80420694620469847C3E70A7966
:109570000A73DB7B012B13D0022B14D0E1882389E3
:109580008B4205D20020FFF74DFF70B90123E37233
:10959000217B637B8B42AED20020FFF747FFAAE717
:1095A0000B88E380EAE74B88FBE7112802D101230F
:1095B000A372EDE7FEF7FEFA284B2B490246294835
:1095C0001B1ADB081B0443F00100FEF787F9DFE7F5
:1095D000F723CB8017230B8141F6FB3348818B8126
:1095E00089E75B89CA88934228BF1346172B0A690B
:1095F00038BF17230B814AB1C97A39B140F67721B8
:109600000091ADF8043069462046904700236381FD
:1096100071E71A7A0B694A73002B3FF46CAF4DF671
:109620007A218DF8050000918DF804209BE7197AC6
:10963000237B994228BF1946AFE711283FF467AF53
:10964000FEF7B8FA054B0849024606481B1ADB0824
:109650001B0443F00100FEF741F958E7D031030045
:10966000F828030060310300C7280300B0DF70470B
:1096700066DF704710B5002104464088FFF7F8FF09
:10968000034608B9237210BD112801D10123F9E75F
:109690006368BDE81040184760B159B10378DE2B0C
:1096A0000AD00B684360DE2303704FF6FF734380DC
:1096B000002070470E2070470820704728B10378BB
:1096C000DE2B04D14180002070470E207047082017
:1096D0007047F0B5054685B00C46F1B1E8B10B789E
:1096E000DE2B1AD182884B889A4204D10B7A13B1AF
:1096F0000846FFF7BFFF2B88112B32D0512B0ED01D
:10970000012B0AD12B7A012B07D1A98862889142BB
:1097100003D123722046FFF7ADFF05B0F0BDAE8840
:109720006388B342F9D1AF79022FF6D1AD7B2B1FFD
:10973000022BF2D800211022684600F031FF052DDF
:1097400014BF4FF4C0730023694630468DF8007093
:10975000ADF80430FFF78AFF0028DED06368984731
:10976000DBE76388AA889A4204BF4FF6FF736380E1
:10977000D3E710DF7047000013B504460949684677
:10978000FEF7C6F9019808B902B010BDD0E9002172
:109790002046904718B16846FEF7D2F9F2E711204B
:1097A000F2E700BF9029030013B504460749684655
:1097B000FEF7AEF9019B0BB902B010BD2046D3E90C
:1097C000002190476846FEF7BBF9F3E7A82903009C
:1097D0000C4991F816335A09EC231341DB0706D5DF
:1097E000094B9A684AB94FF480030B607047074AE7
:1097F000A12142F20200FDF738B91A6842F4800252
:109800001A60704700E100E068AC002034290300D2
:10981000F7B5194F3C7864BB184E012520463570CA
:10982000FFF7AAFF112821D02046FFF7BDFF144BF8
:109830008DF80340186801900DF10300FDF7D2FB8D
:10984000104901A8FFF795FF0446B0FA80F04009DF
:1098500038709DF80300FDF7F5FB3CB90A4B3470F6
:109860001C70FFF7B5FF2846FFF79EFF204603B0A8
:10987000F0BD0824FAE700BFA5A80020A4A8002096
:109880008A290300A5660200A6A80020014B1878CB
:10989000704700BFA5A8002007B508496846FEF735
:1098A00037F9019B13B903B05DF804FBD3E900203D
:1098B00090476846FEF744F9F3E700BF9C29030090
:1098C000FFF7EABF60DF704769DF704761DF70470D
:1098D00030B5134DADF5017D4FF4FA740DF1020171
:1098E00003A8ADF80240FFF7F1FF70B9294601A8BF
:1098F000FEF70EF9029B002BF0D003A8D3E900215C
:10990000904701A8FEF71CF9F4E7052804D0054AA2
:1099100040F23911FDF7A9F80DF5017D30BD00BF0A
:10992000842C0300B4290300024B1B780BB1FFF712
:10993000CFBF7047A7A8002030B5054685B00C46BC
:10994000002900F0B6805C4B0B600C22002101A8BE
:1099500000F026FE01238DF8063022688DF80450B1
:10996000062301A92020ADF80830FFF7ADFF60B154
:10997000FEF720F9514B5249024652481B1ADB08A8
:109980001B0443F00100FDF7A9FF0C22002101A8F0
:1099900000F006FE01238DF805302268002301A99E
:1099A0004020ADF80630FFF78FFF60B1FEF702F9F7
:1099B000424B4549024643481B1ADB081B0443F04F
:1099C0000100FDF78BFF0C22002101A800F0E8FD4B
:1099D000F72322688DF8045001A92320ADF8063042
:1099E000FFF772FF60B1FEF7E5F8344B37490246E6
:1099F00034481B1ADB081B0443F00100FDF76EFF1F
:109A00000C22002101A800F0CBFD0A2322688DF86A
:109A1000043001A90120FFF757FF60B1FEF7CAF833
:109A2000264B2B49024627481B1ADB081B0443F030
:109A30000100FDF753FF0C22002101A800F0B0FD4A
:109A40004FF4B0632268019301A9A120FFF73CFF06
:109A500060B1FEF7AFF8194B1E49024619481B1AB0
:109A6000DB081B0443F00100FDF738FF0C22002146
:109A700001A800F095FD9DF8043022686FF3000303
:109A800001A9A0208DF80430FFF71EFF034668B13E
:109A9000FEF790F8094B104902460A481B1ADB08EA
:109AA0001B0443F00100FDF719FF0023184605B021
:109AB00030BD0E23FAE700BFB8940020E831030060
:109AC000062A0300603103004C2A0300982A030091
:109AD000DF2A03002B2B03007C2B030073B5054604
:109AE0000668FFF7EFFE2B68B34204461DD91A48FB
:109AF0001A4B1B491B1ADB081B0443F002000190A0
:109B0000FDF7E8FE2B68174901983246FDF7EFFE96
:109B10004FF080532A68D3F80C31134901989B0207
:109B200003F100539A1AFDF7D9FE2CB90F4B01220D
:109B30001A70204602B070BD2046FEF73BF8074B76
:109B40000B49024604481B1ADB081B0443F00100C2
:109B5000FDF7C4FEEDE700BF60310300E83103000C
:109B6000CF2B0300FE2B03002F2C0300A7A80020FF
:109B7000592C03006CDF704772DF704774DF704749
:109B800076DF704778DF70477ADF70477CDF704799
:109B90007FDF704786DF70478ADF70478FDF70474F
:109BA000B1DF704733DF70477047000037B5038877
:109BB000212B044632D80F2B06D87D4B13B12046FB
:109BC000AFF3008003B030BD103B112BF5D801A2DC
:109BD00052F823F0519C0200959C0200BB9B0200AE
:109BE000CF9C02000B9D0200BB9B0200BB9B0200AE
:109BF000BB9B0200BB9B0200BB9B0200BB9B020005
:109C0000279D0200BB9B0200779D0200BB9B0200C8
:109C1000BB9B0200BB9B0200959D02003B2B00F00A
:109C20008F80503B9AB2062AC7D8062BC5D801A20E
:109C300052F823F0B19C0200BF9C0200EF9C02008E
:109C4000BB9B0200BB9B0200BB9B0200579D020016
:109C5000584D818858482980FFF730FD20B1574A78
:109C60004FF49D71FCF701FF002328881A4619461E
:109C7000FFF796FF20B1514A4FF4A171FCF7F5FEB2
:109C80004F4800F0DDFC4F4B002B96D02046AFF341
:109C9000008092E7474B4C484FF6FF721A8000F065
:109CA000CFFC4A4B002B88D02046AFF3008084E7DE
:109CB000474B002B81D02046AFF300807DE7454B1A
:109CC000002B3FF47AAF2046AFF3008075E73948A8
:109CD000002300881A468521FFF75AFF00283FF429
:109CE0006CAF364A40F28111FCF7BFFE65E73148A0
:109CF000002300881A461946FFF752FF00283FF458
:109D00005CAF2E4A40F28711EEE72A480023008814
:109D10001A461946FFF73EFF00283FF44EAF274A88
:109D200040F29111E0E7037A012B7FF446AFFFF791
:109D300039FF00283FF441AF204A4FF4CC71D3E7FC
:109D400080881321FFF71CFF00283FF436AF1B4A21
:109D50004FF4D071C8E7A379002B7FF42EAF154BD9
:109D600013211888FFF70CFF00283FF426AF134A91
:109D700040F2A711B8E7184B0BB1FCF7EFFA1749FF
:109D80000020FFF709FF00283FF417AF0B4A40F20D
:109D9000C711A9E700238088ADF8043001A9FFF7B7
:109DA000FDFE00283FF409AF044A40F2D1119BE7C1
:109DB0000000000074AC002018AB0020902C0300C1
:109DC000BF2C030000000000CF2C030000000000A7
:109DD00000000000000000005D630200D09400203D
:109DE00008B5024AB021FCF740FE08BD902C0300E4
:109DF00008B503784BB9054B3B211888FFF7C0FE27
:109E000018B1034ABA21FCF730FE08BD74AC00203B
:109E1000902C030008B5024AAC21FCF726FE08BDD1
:109E2000902C030013B504460548019100F008FC8E
:109E3000019A04482146FCF718FE02B010BD00BF8D
:109E4000E12C0300EFBEADDE1FB5184C00230293DA
:109E5000ADF80030CDF80B3023681B788DF8023058
:109E6000E5238DF8033006224CF2980369460DF184
:109E70000900ADF8043000F0F9FA23685B884FF66A
:109E8000FF72934207D0062269460DF10900ADF832
:109E9000003000F0EBFA02A8FFF76CFE20B1044A94
:109EA00040F22B21FCF7E1FD04B010BDA8A8002072
:109EB000902C030007B5FFF7ABFC20B10F4A40F22E
:109EC0003321FCF7D2FD002301A901200193FFF704
:109ED00033FD20B1094A40F23921FCF7C6FD01A843
:109EE000FFF7FCFD20B1054A40F26E21FCF7BDFDF5
:109EF000FFF7AAFF03B05DF804FB00BF902C03003E
:109F000010B51D4C86B011238DF80C3023685968AC
:109F10000191084600F0F4FC019982B203A8FFF712
:109F200035FE20B1154A4FF42071FCF79EFD4FF429
:109F30007070FFF727FE20B1104A4FF42171FCF733
:109F400094FD0822002104A800F02AFB23685A8906
:109F50009B89ADF8123004A84FF0C873ADF81020FB
:109F60000593FFF711FE20B1044A40F28F21FCF760
:109F70007CFD06B010BD00BFA8A80020902C0300F7
:109F800000B5ADB0AC22002101A800F009FB02230E
:109F90008DF8043040F20163104AADF80630012319
:109FA000ADF8143006928DF880304FF4F072002333
:109FB000CDE923230A480B4B2A9301A9FEF731FF71
:109FC00020B1094A40F2B221FCF74FFD04480121BB
:109FD000FEF724FF2DB05DF804FB00BFCC940020F9
:109FE000ACA80020A99B0200902C030000B589B00A
:109FF0001C22002101A800F0D3FA00234FF42032E4
:10A00000CDE90132ADF812304FF470228DF81430E2
:10A01000094B039206930322084B8DF8102001A8E8
:10A020000793FFF7BFF920B1054A4FF43271FCF7EF
:10A030001CFD09B05DF804FBF19D0200E19D0200EA
:10A04000902C030007B5074B0748019301A9FFF7C0
:10A0500023FB20B1054A40F2D321FCF706FD03B0F3
:10A060005DF804FB159E020018AB0020902C030045
:10A0700008B5FCF7F7FE20B1024A40F22531FCF7A3
:10A08000F4FC08BD902C030008B506480321FEF738
:10A0900047FF30F0080304D0034A40F23231FCF7A6
:10A0A000E4FC08BDACA80020902C030008B5074BC9
:10A0B00093F85400FFF762FD30F0080304D0044A1F
:10A0C0004FF44F71FCF7D1FC08BD00BFACA80020D5
:10A0D000902C030008B505490548FFF75DFD20B148
:10A0E000044A40F24B31FCF7C0FC08BDD09400207C
:10A0F000D8940020902C030008B51A4B1860FDF787
:10A10000F1FC20B1184A40F25E31FCF7AEFCFFF7DB
:10A11000AFFFFFF7CFFE154800F092FAFFF7F0FE11
:10A12000134800F08DFA13480021FFF7BFF920B162
:10A130000D4A40F29621FCF798FC0F4800F080FA97
:10A14000FFF71EFF0D4800F07BFAFFF77BFF0C487E
:10A1500000F076FAFFF74AFF0A484FF6FF730380D4
:10A1600008BD00BFA8A80020902C0300062D030006
:10A17000172D030004AB0020222D03002E2D030019
:10A18000412D030074AC002070B50D46144C0646FA
:10A19000FFF78CFF1F2D28BF1F252A463146D4F814
:10A1A000340200F063F91F220021D4F83C02A4F825
:10A1B000385200F0F5F9002304F13C0204F50D716A
:10A1C00004F15400A4F84032FFF7D6FC20B1054A50
:10A1D00040F21D51FCF749FCFFF756FF70BD00BF70
:10A1E000ACA80020902C0300054B1B68082B01BF76
:10A1F000044B1868B0FA80F0400918BF002070477F
:10A20000300100103401001008B54FF080430022E7
:10A21000C3F80C21C3F81021C3F838254FF0805241
:10A2200003F54043D2F80414C3F82015D2F80814FB
:10A23000C3F82415D2F80C14C3F82815D2F810145A
:10A24000C3F82C15D2F81414C3F83015D2F818142A
:10A25000C3F83415D2F81C14C3F84015D2F82014F2
:10A26000C3F84415D2F82414C3F84815D2F82814BA
:10A27000C3F84C15D2F82C14C3F85015D2F830148A
:10A28000C3F85415D2F83414C3F86015D2F8381452
:10A29000C3F86415D2F83C14C3F86815D2F840141A
:10A2A000C3F86C15D2F84424C3F87025FFF79CFF5F
:10A2B00010B1384B384A1A60FFF796FF18B1374B88
:10A2C000FB22C3F81825FFF78FFF48B13449354BFF
:10A2D0000A681B6822F00F0203F00F0313430B60A0
:10A2E000FFF782FF18B1304B4FF400721A604FF045
:10A2F0008043D3F80024D20744BF6FF00102C3F8B3
:10A3000000242A4AD2F8883043F47003C2F8883017
:10A31000BFF34F8FBFF36F8F4FF01023D3F800229E
:10A32000002A03DBD3F80432002B2FDA204B012262
:10A33000C3F80425D3F80024002AFBD04FF01022E4
:10A340001221C2F80012D3F80024002AFBD04FF0EB
:10A3500010231222C3F80422154B1A46D3F8001416
:10A360000029FBD00021C3F80415D2F80034002BDB
:10A37000FBD0BFF34F8F0D490E4BCA6802F4E06269
:10A380001343CB60BFF34F8F00BFFDE70A4B0B4A6F
:10A390001A6008BD8C5600404881030000F0004060
:10A3A000E40E0040580200104096024000ED00E02C
:10A3B00000E001400400FA05E89400200090D0037A
:10A3C0000649074A074B9B1A03DD043BC858D05087
:10A3D000FBDCFFF719FFFBF737FF00004C320300EF
:10A3E000B8940020A89E0020FEE7FEE7FEE7FEE707
:10A3F000FEE7FEE7FEE7FEE7FEE7FEE70028B8BF60
:10A400004042704708B50021044602F08DF9044B24
:10A410001868C36B03B19847204606F0FFFA00BFE7
:10A42000582E030070B50D4E0D4D761BB61006D09C
:10A43000002455F8043B01349847A642F9D1094E4F
:10A44000094D761B07F0FCF8B61006D0002455F82D
:10A45000043B01349847A642F9D170BD989E002074
:10A46000989E0020A49E0020989E0020844641EAE9
:10A47000000313F003036DD1403A41D351F8043B7C
:10A4800040F8043B51F8043B40F8043B51F8043BCE
:10A4900040F8043B51F8043B40F8043B51F8043BBE
:10A4A00040F8043B51F8043B40F8043B51F8043BAE
:10A4B00040F8043B51F8043B40F8043B51F8043B9E
:10A4C00040F8043B51F8043B40F8043B51F8043B8E
:10A4D00040F8043B51F8043B40F8043B51F8043B7E
:10A4E00040F8043B51F8043B40F8043B51F8043B6E
:10A4F00040F8043B51F8043B40F8043B403ABDD2DD
:10A50000303211D351F8043B40F8043B51F8043B7E
:10A5100040F8043B51F8043B40F8043B51F8043B3D
:10A5200040F8043B103AEDD20C3205D351F8043B0D
:10A5300040F8043B043AF9D2043208D0D2071CBFD9
:10A5400011F8013B00F8013B01D30B880380604602
:10A55000704700BF082A13D38B078DD010F0030378
:10A560008AD0C3F10403D21ADB071CBF11F8013BE8
:10A5700000F8013B80D331F8023B20F8023B7BE737
:10A58000043AD9D3013A11F8013B00F8013BF9D262
:10A590000B7803704B7843708B78837060467047FC
:10A5A000F0B4860746D0541E002A3CD0CAB20346F7
:10A5B00001E0013C37D303F8012B9D07F9D1032CAF
:10A5C0002AD9CDB245EA05250F2C45EA054534D9EF
:10A5D000A4F1100222F00F0C03F1200716096744C2
:10A5E00003F1100242E9045542E902551032BA4221
:10A5F000F8D1721C14F00C0F03EB021204F00F06DA
:10A6000013D0331F23F003030433134442F8045BD5
:10A610009342FBD106F003042CB1CAB21C4403F8E8
:10A62000012B9C42FBD1F0BC704734461346002CF2
:10A63000F3D1F8E714460346C1E71A462646E0E799
:10A640000FB400B5074983B004AB086853F8042B76
:10A650008168019300F0C4F903B05DF804EB04B025
:10A66000704700BFEC94002000290CBF022200229A
:10A670004FF4806300F000B82DE9F043654CD4F846
:10A68000009083B004460F4690461E46B9F1000F75
:10A6900003D0D9F83830002B79D0B8F1020F06D0AA
:10A6A000B8F1010F00F2A480002EC0F2A180636E09
:10A6B000D90752D52146484603F06CF9216B41B1C8
:10A6C00004F14003994202D0484603F05BFA0023AC
:10A6D0002363B4F90C500023A36163602B0665D497
:10A6E00025F44A6525F00305B8F1020FA58164D071
:10A6F00001AB6A462146484603F078FBA38918431C
:10A70000A081002E30D0002F2FD0D9F83830002B68
:10A7100039D0009B2760B342B4F90C301CBF43F41E
:10A720000063A381B8F1010F04BF43F00103A381CB
:10A730009AB213F00803C4E904762CD0D10755D59A
:10A740007642A661666E002116F00106A16027D050
:10A750000026304603B0BDE8F083A3899A05A9D44A
:10A76000A06D03F03FFBA5E7009E304603F0B8FB69
:10A77000074600283FD0A38943F08003A381D9F87E
:10A780003830002BC5D1484603F060F9C1E7484690
:10A7900003F05CF981E7A360666E16F00106D7D17D
:10A7A00093051CD5304603B0BDE8F08321694846C7
:10A7B00003F0E8F9B4F90C5092E70026626E00212C
:10A7C00004F1430345F00205A160D7074FF00101F2
:10A7D000C4E90431A5812360E4D4A805E2D4A06DC6
:10A7E00003F002FB304603B0BDE8F083A660D3E778
:10A7F0004FF0FF36D6E7009DB54204D0284603F05F
:10A800006FFB074620B9B4F90C504FF0FF36D5E77F
:10A810002E46B0E7EC94002080EA0102844612F054
:10A82000030F4FD111F0030F32D14DF8044D11F049
:10A83000040F51F8043B0BD0A3F101329A4312F0FC
:10A84000803F04BF4CF8043B51F8043B16D100BFD5
:10A8500051F8044BA3F101329A4312F0803FA4F166
:10A8600001320BD14CF8043BA24312F0803F04BFED
:10A8700051F8043B4CF8044BEAD023460CF8013B5A
:10A8800013F0FF0F4FEA3323F8D15DF8044B704704
:10A8900011F0010F06D011F8012B0CF8012B002A42
:10A8A00008BF704711F0020FBFD031F8022B12F031
:10A8B000FF0F16BF2CF8022B8CF8002012F47F4FEC
:10A8C000B3D1704711F8012B0CF8012B002AF9D1F4
:10A8D000704700BF00000000000000000000000002
:10A8E0000000000000000000000000000000000068
:10A8F0000000000000000000000000000000000058
:10A9000090F800F06DE9024520F007016FF0000CAF
:10A9100010F0070491F820F040F049804FF0000457
:10A920006FF00700D1E9002391F840F000F1080032
:10A9300082FA4CF2A4FA8CF283FA4CF3A2FA8CF36A
:10A940004BBBD1E9022382FA4CF200F10800A4FAD1
:10A950008CF283FA4CF3A2FA8CF3E3B9D1E9042325
:10A9600082FA4CF200F10800A4FA8CF283FA4CF35C
:10A97000A2FA8CF37BB9D1E9062301F1200182FA16
:10A980004CF200F10800A4FA8CF283FA4CF3A2FA1C
:10A990008CF3002BC6D0002A04BF04301A4612BA2A
:10A9A000B2FA82F2FDE8024500EBD2007047D1E92D
:10A9B000002304F00305C4F100004FEAC50514F0BC
:10A9C000040F91F840F00CFA05F562EA05021CBF8D
:10A9D00063EA050362464FF00004A9E700000000A7
:10A9E0002DE9F04F2DED068BCFB01C468B46174658
:10A9F000814603F0EFF90368089418461193FFF7B6
:10AA00007FFF1090B9F1000F04D0D9F83830002B37
:10AA100000F00A82DBF86430BBF90C2013F0010F60
:10AA200093B202D1910540F1D5869E040AD4DBF899
:10AA3000641042F4005321F40051ABF80C30CBF811
:10AA400064109BB21D0740F1CA80DBF81020002A79
:10AA500000F0C58003F01A020A2A00F0CE8000231D
:10AA60009FED837BCDE92333CDE91333CDE9153356
:10AA70000C931293049325AB229398463B788DED6B
:10AA80000E7B09EE10BA002B00F078813C4604E002
:10AA900014F8013F002B00F0C980252BF8D1E51BED
:10AAA00040F0C7802378002B00F0688100230593D5
:10AAB0008DF86B300293661C4FF0FF33647803937C
:10AAC0002B254FF0200A0136A4F120035A2B00F267
:10AAD000D380DFE813F07802D100D1007202D100F8
:10AAE000D100D1006A00D100D10010022102D100B2
:10AAF0001B025802D10052025B005B005B005B004E
:10AB00005B005B005B005B005B00D100D100D1000B
:10AB1000D100D100D100D1005D01D100B30190027C
:10AB20005D015D015D01D100D100D100D1008A023B
:10AB3000D100D100E902D100D100D100C101D10082
:10AB40002502D100D1002108D100D100D100D100CF
:10AB5000D100D100D100D1005D01D100B301E701E6
:10AB60005D015D015D01FE02E701AD01D1008102E1
:10AB7000D1001B0317080703AD01D100C1018200FA
:10AB80001308D100D100F207D1008200A4F13003F4
:10AB9000002216F8014B02EB820203EB4202A4F101
:10ABA0003003092BF5D905928EE7484603F012F9D8
:10ABB000436815931846FFF7A3FE034648461C4614
:10ABC000169303F007F98268139234B1139B23B1F3
:10ABD000139B1B78002B41F0D980347873E75946DA
:10ABE000484601F02FFD002841F07483BBF80C307B
:10ABF00003F01A020A2A7FF432AFBBF90E20002AB2
:10AC0000FFF62DAFDBF86420D20702D49E0541F198
:10AC1000918123463A465946484601F0D1FC0490BA
:10AC200004984FB0BDEC068BBDE8F08FE51B00F03B
:10AC3000A580DDE9233201332A44072BCDE92332F5
:10AC4000C8F80070C8F8045006DC08F10808049A37
:10AC500023782A44049226E719EE101A22AA4846BD
:10AC600004F0E6F8002841F04D840DF19408EEE779
:10AC700000000000000000000996002C7ED0002398
:10AC80001A464FF0010A8DF8D4408DF86B300792C8
:10AC900003920A920D920B92CDF818A035AF029B49
:10ACA000029913F0020318BF0AF1020A11F0840B93
:10ACB00005D10599A1EB0A06002E00F3D483249D4B
:10ACC00072B1239A013201350DF16B000121072A7F
:10ACD000CDE92325C8E9000100F3058408F108083F
:10ACE0006BB1239B013302351BA90222072BCDE94F
:10ACF0002335C8E9001200F3068408F10808BBF107
:10AD0000800F00F09682039B069A9E1A002E00F395
:10AD1000D882029BDE0500F13082239B069AC8F898
:10AD2000007001331544072B2495C8F804202393A1
:10AD300000F32D8308F10808029B5C0705D5059BED
:10AD4000A3EB0A04002C00F3EC83DDE90432524546
:10AD5000ACBF9B1853440493002D40F0EF820023B6
:10AD60002393079B1BB10799484602F00BFF0DF197
:10AD70009408099F3B78002B7FF488AE249B19EE42
:10AD800010BA002B40F0F8870023239300F08FBC0B
:10AD9000089B0996073323F00703B3EC027B8DED84
:10ADA0000E7BDDE90E56089326F000430AEE903A3A
:10ADB0000AEE105A5BEC1AABB84B504659464FF0AE
:10ADC000FF3206F083FA002840F05285B34B4FF073
:10ADD000FF325046594606F05BFA002840F048859D
:10ADE000002200232846314606F048FA002841F0A8
:10ADF0009A819DF86B20AA4FAA4B029800214FF030
:10AE0000030A20F0800007910290472CC8BF1F461C
:10AE1000CDF818A003910A910D910B91002A3FF4EF
:10AE20003EAF0AF1010A3AE7484602F00FFEF1E5AB
:10AE3000029B347843F02003029344E6089B099672
:10AE400053F8042B8DF8D42000210A464FF0010A54
:10AE500008938DF86B101AE7089D099655F8047B46
:10AE600000268DF86B60002F00F08486039A13464D
:10AE7000013300F02E873146384603F0F9FA079087
:10AE8000002801F0E281079B0396DA1B0692334605
:10AE900022EAE27A08959DF86B2007930A930D93B6
:10AEA0000B93BBE7029B09969D0640F1AD80089B82
:10AEB000073323F007031946F1E80223089192466D
:10AEC0009B46002A73F10003C0F2AF80039B01335D
:10AED00000F0AD85029B23F080055AEA0B0340F099
:10AEE000B182039B002B40F0B482029500230393B0
:10AEF00006934EAFC3E0089B53F8042B0592002A3B
:10AF000080F27184059A089352420592029B34782C
:10AF100043F004030293D6E534788DF86B50D2E504
:10AF2000029B099643F01005AF0640F12984089B67
:10AF3000073323F00703F3E802AB08930123002251
:10AF40008DF86B20039A114601317DD025F08001E8
:10AF500002915AEA0B0140F07182002A40F0868685
:10AF6000002BC3D115F00103069300F06B8430234E
:10AF70008DF837310DF2371781E0029B347843F0BA
:10AF8000800302939FE5324612F8014B2A2C01F010
:10AF9000F182A4F13003092B164698BF002201F27A
:10AFA000928116F8014B02EB820203EB4202A4F1FC
:10AFB0003003092BF5D9039286E5029B347843F0E0
:10AFC000010302937FE59DF86B30002B7FF405AE03
:10AFD00034788DF86BA076E53478029B6C2C00F009
:10AFE000C28543F0100302936DE5029B347843F071
:10AFF0000803029367E5029B099643F0100302934E
:10B00000029B9D063FF553AF029BD80640F1F684A4
:10B01000089B53F8042B08934FEAE27B5B46002A17
:10B0200073F100039246BFF651AF039A029DDAF125
:10B03000000A11464FF02D036BEB4B0B01318DF8DD
:10B040006B304FF0010381D1012B00F0FB81022B0B
:10B050004EAF73D112984FEA1A130AF00F0143EA68
:10B060000B734FEA1B129A469346435C07F8013D67
:10B070005AEA0B03EFD14EABDB1B0295069300237C
:10B08000039907930A930D930B93069B9DF86B20EE
:10B090008B42B8BF0B469A46C0E600BFFFFFEF7F6A
:10B0A0005C2E0300602E0300029B099643F0100300
:10B0B0000293029B990640F17783089B073323F0A4
:10B0C0000703F3E802AB0893029B23F48065002397
:10B0D00035E73478029B682C00F03E8543F040034E
:10B0E0000293F0E4089B099647F6300153F8042BCD
:10B0F000ADF86C1002990893CD4B129341F0020504
:10B1000092464FF0000B0223782418E7029B099621
:10B110009E0600F1A183029BDD0600F1AD85029B36
:10B120005C0600F14986029B980540F1A585089BC5
:10B13000049953F8042B089311701AE64FEADA02C7
:10B1400042EA4B724FEADB010AF007038B46924654
:10B1500030335AEA0B013A4607F8013DEED1E907D0
:10B1600089D5302B87D03023023A07F8013C4EAB0B
:10B170009B1A02950693174681E7652C40F31381CD
:10B18000DDE90E010022002306F06EF8002800F031
:10B190000482239BA74AC8F800200133013501220D
:10B1A000072BCDE92335C8F8042000F3418508F1C9
:10B1B00008081C9B0C9A934280F20783239B119AE8
:10B1C000C8F80020109AC8F8042001331544072B52
:10B1D0002495239300F3B28408F108080C9B5C1EAD
:10B1E000002C7FF7A9AD102C239BDFF84CB240F365
:10B1F00030855F46102619EE10BA05E008F1080800
:10B20000103C102C40F3248501331035072BCDE979
:10B210002335C8E90076F1DD22AA5946484603F0F5
:10B2200007FE002840F03E82DDE923350DF1940849
:10B23000E6E7059BA3EB0A06002E7FF764AD102E10
:10B24000239ADFF8F4B129DD58462946A34619EEC2
:10B25000105A1023044604E0103E102E08F108088E
:10B2600018DD01321031072ACDE92321C8E9004356
:10B27000F2DD22AA2946484603F0DAFD002840F014
:10B280001082103E102EDDE923210DF194084FF0BD
:10B290001003E6DC23460D465C469B4601323544EE
:10B2A000072ACDE92325C8F800B0C8F8046000F3E8
:10B2B0003784039B069A9E1A002E08F108087FF730
:10B2C00028AD102E239ADFF870B129DD58462946A3
:10B2D000A34619EE105A1023044604E0103E102E27
:10B2E00008F1080818DD01321031072ACDE92321C1
:10B2F000C8E90043F2DD22AA2946484603F098FD3A
:10B30000002840F0CE81103E102EDDE923210DF102
:10B3100094084FF01003E6DC23460D465C469B463E
:10B3200001323544072ACDE92325C8F800B0C8F812
:10B33000046000F3178208F10808EAE419EE101A15
:10B3400022AA484603F074FD00283FF408AD19EE28
:10B3500010BAA7E1239B1199C8F800101099C8F8FA
:10B36000041001330D44072B2495239300F3D28559
:10B3700008F10808002AC0F2C7870C9A0133154467
:10B38000072BCDE92335C8E900727FF7D3AC19EE5E
:10B39000101A22AA484603F04BFD0028D7D1249D5D
:10B3A0000DF19408C8E40C9B239C012B40F392817F
:10B3B000013401350123072CCDE92345C8F800707D
:10B3C000C8F8043000F3F18308F10808109B119AC3
:10B3D00001341D44072CCDE92345C8E9002300F3BF
:10B3E000F28308F108080023DDE90E01002205F0D0
:10B3F0003BFF0C9B002840F08B81013B013401375F
:10B400001D44072CCDE92345C8F80070C8F8043066
:10B4100000F3708108F10808149A013415441EAB3A
:10B42000072CCDE92345C8E900327FF783ACAEE7AE
:10B430006C2E03009C2E0300B02E0300012B029DF6
:10B440007FF405AEBBF1000F08BFBAF10A0F80F020
:10B45000F6820AF1300A01238DF837A1029506938E
:10B460000DF237170BE6102EDDE9232129DD1793A6
:10B47000102543460846B846274619EE104A04E010
:10B48000103E102E03F1080316DD0132C4491030BE
:10B49000072ACDE92320C3E90015F1DD22AA2146C0
:10B4A000484603F0C5FC002840F0B483103E102E3F
:10B4B000DDE9232025ABE8DC3C4647469846179B50
:10B4C00001460132B648C8F800007518072ACDE9D0
:10B4D0002325C8F8046000F38B839DF86B2008F1E6
:10B4E0000808FFF7EDBB19EE101A22AA4846179379
:10B4F00003F09EFC00287FF42AAF249D179B0DF1DA
:10B500009408FFF7EDBB19EE101A22AA484603F083
:10B510008FFC00287FF41BAF249D0DF19408FFF7EA
:10B52000EEBB102C239B20DD19EE107A102604E0D0
:10B53000103C102C08F1080817DD0133984A10352B
:10B54000072BCDE92335C8E90026F1DD22AA3946CB
:10B55000484603F06DFC002840F07883103C102C26
:10B56000DDE923350DF19408E7DC01338C4AC8F896
:10B5700000202544072BCDE92335C8F804407FF788
:10B58000E4AB19EE101A22AA484603F051FC002839
:10B590007FF4DDAE249DFFF7D8BB1C9A002A40F350
:10B5A0002681DDE90B329342A8BF1346002B1C46CF
:10B5B0000DDD239BC8F8007001332544072B24952B
:10B5C000C8F80440239300F3D98508F108080B9BC1
:10B5D000002CA8BF1B1B002B1C4600F355830B9BA4
:10B5E0003B449B46029B590500F104851C9B0C9A29
:10B5F000934203DB029AD20740F1CF83239A119939
:10B60000C8F800101099C8F8041001320D44072A38
:10B610002495239200F3E98508F108080C9ABC18D8
:10B62000A4EB0B04D31A9C42A8BF1C46002C0DDDD2
:10B63000239AC8F800B001322544072A2495C8F897
:10B640000440239200F32E8608F10808002CACBFBA
:10B650001C1B1C46002C7FF76FAB102C239BDFF8C4
:10B6600044B140F3F6825F46102619EE10BA05E0A9
:10B6700008F10808103C102C40F3EA820133103521
:10B68000072BCDE92335C8E90076F1DD22AA59461A
:10B69000484603F0CDFB28B9DDE923350DF19408C8
:10B6A000E8E7AB46079911B1484602F06BFADBF8C0
:10B6B000643013F0010FBBF80C3002D1980540F153
:10B6C0009082590600F1128604984FB0BDEC068BAB
:10B6D000BDE8F08F029BDE073FF56AAE013401350D
:10B6E0000123072CCDE92345C8F80070C8F80430C1
:10B6F0007FF790AE19EE101A22AA484603F098FB85
:10B7000000287FF424AEDDE923450DF1940883E69B
:10B710005E1E002E7FF780AE102EDFF888B040F35B
:10B72000E382CDF80CA0102719EE10AA05E008F16D
:10B730000808103E102E40F3D58201341035072C36
:10B74000CDE92345C8E900B7F1DD22AA51464846B4
:10B7500003F06EFB002840F0BA85DDE923450DF1CA
:10B760009408E6E719EE101A22AA484603F060FB97
:10B7700000287FF4ECAD249D0DF19408FFF7C9BAC1
:10B78000089AEE0652F8041B08924FF001035ED4AB
:10B79000680659D51FFA81FA4FF0000BFFF7CFBBAF
:10B7A000A02E0300B02E0300029BDA0600F13681C2
:10B7B000029B5B0640F1B082089B53F8042B089370
:10B7C0001FFA82FA4FF0000B7EE4029BD8077FF548
:10B7D000B3AAF3E4DBF8580002F004FBBBF90C2039
:10B7E00093B2FFF722B934780893FFF76CB9239B23
:10B7F000C649C8F80010013301350121072BCDE9F6
:10B800002335C8F8041000F39B8408F10808002AC7
:10B810007FF4A0AD029B0C9A03F0010313433FF4A5
:10B820008BAA239B119AC8F80020109AC8F804200C
:10B8300001331544072B2495239300F36B8308F100
:10B8400008089AE54EAF1AE4AA0500F1AF828A46CD
:10B850004FF0000BFFF773BB089B53F8041B0893D2
:10B86000049BDD171A462B46C1E90023FFF781BA76
:10B87000DDE90E0102460B4605F028FD05460028CD
:10B8800040F03086612C00F0A485412C00F0A282AB
:10B89000039B24F020065A1C069600F0C085472E14
:10B8A00000F09C85DDE90E01029A002942F48072C5
:10B8B0000A924FF00003C0F2E58541EC180B179394
:10B8C0000793462E00F0A084452E40F07184B0EE20
:10B8D000480AF0EE680A039B20A95D1C1DABCDE968
:10B8E00000312A461CAB0221484601F019F80746F0
:10B8F00005440A9BDDF808B0029351EC180B0022B6
:10B90000002305F0B1FC002800F056832B46DB1B1A
:10B910000C93069B472B00F02183069B462B00F0DF
:10B92000A1841C9B0B930B9B069A013B412A1C9301
:10B9300000F0A285E2B20021002BB8BF0B9B8DF86E
:10B940007820BABFC3F101032D222B22092B8DF8D9
:10B95000792040F382850DF1870EDFF8B8C1754676
:10B960008CFB0321DA17C2EBA10202EB8201A3EBED
:10B9700041011E463031632E284605F8011C13464E
:10B9800005F1FF35ECDC3033DAB2831E9E452946E3
:10B9900005F8012C40F2F9850DF17A0301E011F868
:10B9A000012B03F8012B8E45F9D10DF189030DF11F
:10B9B0007A021B1A13441EAA9B1A14930C9B149A06
:10B9C000012B1A44069240F3AF85069B109A13444C
:10B9D000069300232BF480660A930D930B93069B2A
:10B9E00046F48072029223EAE37A179B002B40F020
:10B9F000DC829DF86B200393FFF710BA029B590677
:10BA000040F19981089B53F8042B08930FFA82FAAE
:10BA10004FEAEA7B52465B46FFF753BA089B53F85E
:10BA2000042B089392464FF0000BFFF74DBBBBF180
:10BA3000000F08BFBAF10A0F029DFFF40AAD05F42A
:10BA4000806600230295CDF81880139DA0464EAF66
:10BA500034461E4609E005F077FCBBF1000F08BF35
:10BA6000BAF10A0F1FD382468B460A2200235046A2
:10BA7000594605F069FC94460CF1300C07F801CCEE
:10BA8000504659460A2200230136013F002CE2D0DD
:10BA900095F800C06645DED1FF2EDCD09B4508BF7F
:10BAA000924580F095824EABDB1B44461395DDF842
:10BAB00018800C960693FFF7E2BA154B099612937D
:10BAC000029B9F0666D5089B073323F00703F3E824
:10BAD00002AB0893029AD0070AD55AEA0B0307D0A3
